:020000040000FA
:1000000080312A28003008007E1480310B1A8B1CA6
:100010000D2894314424803128280B1F28282100E2
:10002000111E1C282000111E1C2821006E088A00A9
:100030006D080A00803128282100911E2828200000
:10004000911E282821006C088A006B080A00803164
:100050007E10090080312C28E9308400943085001E
:10006000DC308600003087000D3094318E248031E2
:10007000D83084009630850020308600013087001B
:100080001B3094318E248031FC01A030840000307C
:10009000850029309431882480313B308400013040
:1000A00085001030943188248031A03084000130E4
:1000B00085005030943188247E10200083318C2BB1
:1000C0002000C000BB01BC01BD01BE01BA01B701E7
:1000D000B80140080319A62832080319A6284008C9
:1000E000083E860001308700811986283208083EC4
:1000F000860001308700811D86284008083E860062
:10010000013087008115B701B70ABB283208083EC5
:1001100086000130870081199D284008083E86002E
:1001200001308700811D9D283208083E860001307D
:1001300087008115B801B80ABB284008083E860030
:10014000013087008119BB283208B3284008031DFD
:10015000AC283208031DA42840080319BB28320824
:10016000031DBB284008083E860001308700811926
:10017000BB28003008003208953112258031003A42
:100180000319C5282000BA01BA0A2E00120820005F
:10019000B3003308B4002E0013082000B300330866
:1001A000B5002F0013082000B3003308B6009531C6
:1001B0005C258031200040080319F1284008043EE6
:1001C0008600013087000108FF3EB3003308BF00FE
:1001D000B90140302E0098002F00980122001D1414
:1001E00004293208043E8600013087000108FF3EE2
:1001F000B3003308BF00B901B90A2E00980140309E
:100200002F00980022001D10F201200040088F31BD
:1002100050278031F201F20A200032088F31502736
:100220008031210046104611C611680894314D24D2
:1002300080319431372480312100BA01BB01200084
:100240003908031D2C29111B27292100C610200065
:10025000111F272911133429121B30292100C61020
:100260002000121F302912132130B30033082E0052
:10027000980621302000B30033082F009806C030C4
:100280002000B30033082E009406C0302000B300D5
:1002900033082F00940620003F1895292E001A08D5
:1002A0002100A8072E001B082100A93D2F001A08D5
:1002B0002100AA072F001B082100AB3D20003A08AF
:1002C000031D7A292E001A0820003D02F4002E009A
:1002D0001B0820003E3BF50096314426803174080F
:1002E0002100BA077508BB3D2E001B082000BE0088
:1002F0002E0091292F001A0820003D02F4002F0043
:100300001B0820003E3BF5009631442680317408DE
:100310002100BA077508BB3D2F001B082000BE0056
:100320002F001A082000BD00CA292E001A0821003B
:10033000A8022E001B082100A93B2F001A0821004B
:10034000AA022F001B082100AB3B20003A08031D26
:10035000B0292E001A0820003B02F4002E00B62916
:100360002F001A0820003B02F4002F001B08200079
:100370003C3BF50096314426803174082100BA07D1
:100380007508BB3D2E001B082000BC002E001A087B
:100390002000BB003F08031DCF2921004614013077
:1003A0002000BF022100C61CD72946154614C614DA
:1003B000461C1F2994313A248031200034082E0035
:1003C0009200200035082E009300200036082F00F0
:1003D00093002100461DEE29FB300800C61DF229BE
:1003E000FA300800200037080319FC294008083EAD
:1003F000860001308700811138080319052A320868
:10040000083E8600013087008111400895317D2526
:100410008031003A0319192A200040089431BD2484
:100420008031003A031D192A200040088E3112261F
:1004300080312000320895317D258031003A031942
:100440002E2A200032089431BD248031003A031D49
:100450002E2A200032088E31122680312E0096017D
:100460002F0096012E0097012F0097012E001110EA
:100470002F001110B9282000BE003108C500320835
:10048000C6003308C7003408C8003508C90036085C
:10049000CA003708CB003808CC0045308600003051
:1004A0008700473FB900B91F572A0130582A00304A
:1004B0002000BA00BB013A08C3003B08C40043084F
:1004C00044040319812AC509C609C709C809C9090D
:1004D000CA09CB09CC09C50A031D812AC60A031D16
:1004E000812AC70A031D812AC80A031D812AC90A55
:1004F000031D812ACA0A031D812ACB0A031D812AF2
:10050000CC0A2100B11B882AFD30B205FF30B305AB
:100510003108803A2000B90080303902031D932A47
:1005200001302100300203189B2A01302000BF0057
:100530000030C000A32A210031082000C0002100A3
:1005400030082000BF0021002F082000C200210039
:100550002E082000C10043084404031DB22A2100D4
:10056000321DB72AFF302000C107FF30C23D1F30C7
:100570002000CD000030CE002300EF014D2B2000E5
:10058000450846044704480449044A044B044C0403
:10059000031DE42A4008803AB90080303902031D67
:1005A000D32A01303F020318E42A20004208803A8F
:1005B000B90080303902031DDF2A01304102031CDB
:1005C000592B2100B21C592BFF302000CD07FF30E2
:1005D000CE3D0A30A000A101A201A301A401A50102
:1005E000A601A7014508A8004608A9004708AA00D7
:1005F0004808AB004908AC004A08AD004B08AE0003
:100600004C08AF0085319C25823120002108F5007F
:100610002008F4009631442682317408303E2000D0
:10062000B9004D08D03E86000130870039088100AE
:10063000FF30BF07FF30C03DFF30C107FF30C23D74
:100640000A30A000A101A201A301A401A501A601F5
:10065000A7014508A8004608A9004708AA004808BD
:10066000AB004908AC004A08AD004B08AE004C088E
:10067000AF008431A924823120002008C500210860
:10068000C6002208C7002308C8002408C90025089E
:10069000CA002608CB002708CC0020004E08803A6C
:1006A000B90080303902031D572B01304D02031869
:1006B000BF2A200043084404031D612B2100321D82
:1006C000792BFF302000CD07FF30CE3D4308440496
:1006D000031D6C2B2B306D2B2D30BC000030BD006A
:1006E0003C08B9004D08D03E86000130870039082B
:1006F000810020004D08D03EB9003908A80042080A
:10070000AA004108A9003E088A31222220002908B7
:10071000B2002808B10008009531ED2583318B1710
:100720000B178530F1000B30F200943158248331DF
:100730003430F1001430F20094315224833121001E
:10074000B801B90197312C278331003A0319A22B44
:1007500021004003031DBA2B0130B4070030B53D22
:1007600000303502C83003193402031CBA2BB4011F
:10077000B501C001B61C1D2C973149278331013AC0
:10078000031DD72B2100380A39040319D72B013058
:100790002200D20052082100BF0764303F06031D2B
:1007A0001D2C38080F392200D200D20AF12B9731C4
:1007B00049278331043A031D1D2C210038083904D0
:1007C00003191D2C01302200D20052082100BF075E
:1007D00064303F06031D1D2C38080F392200D2005B
:1007E000D2032100380822005206F03952062100B7
:1007F000B8001C302000E7009830E80021003808DD
:100800000F392200D200D30152082000E900220053
:1008100053082000EA009531B225833121003808C1
:100820000F392200D200D20E2100380822005206D1
:100830000F3952062100B800BF0121003D03031DFE
:100840005F2C0130B4070030B53D00303502643014
:1008500003193402031C502CB401B50138080F39B8
:100860002200D200D2032100380822005206F039BB
:1008700052062100B8001C302000E7009830E80044
:10088000210038080F392200D200D301520820007D
:10089000E900220053082000EA009531B225833197
:1008A000210038080F39003A031D5F2CBD0130309C
:1008B0002000E7009830E8009531B225833121000F
:1008C0003C03031DA22B0130B4070030B53D0030BE
:1008D0003502643003193402031C922CB401B501B3
:1008E00038080F392200D200D20A2100380822002D
:1008F0005206F03952062100B8001C302000E700F3
:100900009830E800210038080F392200D200D301C6
:1009100052082000E900220053082000EA00953127
:10092000B22583312100380E0F392200D200210078
:1009300038080F3922005206031DA22B2100BC01EA
:100940003E302000E7009830E8009531B225833131
:10095000A22BF3012030860000308700473FF100D2
:10096000F11FD32C2000A009A109A209A309A40901
:10097000A509A609A709A00A031DD12CA10A031DD8
:10098000D12CA20A031DD12CA30A031DD12CA40A29
:10099000031DD12CA50A031DD12CA60A031DD12CA1
:1009A000A70AF301F30A2830860000308700473F8A
:1009B000F100F11FFE2C2000A809A909AA09AB0922
:1009C000AC09AD09AE09AF09A80A031DFA2CA90AA2
:1009D000031DFA2CAA0A031DFA2CAB0A031DFA2CDC
:1009E000AC0A031DFA2CAD0A031DFA2CAE0A031D36
:1009F000FA2CAF0A0130F1007108F306743086005A
:100A0000003087000830F10000301E00F10B052D8A
:100A100020002008210422042304240425042604A1
:100A200027040319692DF201F20AA71B242DA03512
:100A3000A10DA20DA30DA40DA50DA60DA70D0130AE
:100A4000F1007108F207152DF435F50DF60DF70DCF
:100A5000F80DF90DFA0DFB0D27082F02031D4A2D85
:100A600026082E02031D4A2D25082D02031D4A2D9E
:100A700024082C02031D4A2D23082B02031D4A2D96
:100A800022082A02031D4A2D21082902031D4A2D8E
:100A900020082802031C5D2D2008A8022108A93B7C
:100AA0002208AA3B2308AB3B2408AC3B2508AD3BFE
:100AB0002608AE3B2708AF3B7414A736A60CA50C3E
:100AC000A40CA30CA20CA10CA00C0130F202031D7B
:100AD000242D730803198A2DF409F509F609F7097D
:100AE000F809F909FA09FB09F40A031D8A2DF50A28
:100AF000031D8A2DF60A031D8A2DF70A031D8A2D70
:100B0000F80A031D8A2DF90A031D8A2DFA0A031D0E
:100B10008A2DFB0A74082000A0007508A100760841
:100B2000A2007708A3007808A4007908A5007A0835
:100B3000A6007B08A7000800F301283086000030DB
:100B40008700473FF100F11FC62D2000A809A90921
:100B5000AA09AB09AC09AD09AE09AF09A80A031D82
:100B6000C42DA90A031DC42DAA0A031DC42DAB0A56
:100B7000031DC42DAC0A031DC42DAD0A031DC42DD5
:100B8000AE0A031DC42DAF0AF301F30A203086001C
:100B900000308700473FF100F11FED2D2000A00934
:100BA000A109A209A309A409A509A609A709A00AE0
:100BB000031DED2DA10A031DED2DA20A031DED2D30
:100BC000A30A031DED2DA40A031DED2DA50A031D87
:100BD000ED2DA60A031DED2DA70A200020082104F3
:100BE0002204230424042504260427040319452E83
:100BF000F201F20AA71B092EA035A10DA20DA30D2B
:100C0000A40DA50DA60DA70D0130F1007108F20786
:100C1000FA2D27082F02031D272E26082E02031D5A
:100C2000272E25082D02031D272E24082C02031D24
:100C3000272E23082B02031D272E22082A02031D1C
:100C4000272E21082902031D272E20082802031C15
:100C5000392E2008A8022108A93B2208AA3B230814
:100C6000AB3B2408AC3B2508AD3B2608AE3B270830
:100C7000AF3BA736A60CA50CA40CA30CA20CA10C90
:100C8000A00C0130F202031D092E73080319662E11
:100C9000A809A909AA09AB09AC09AD09AE09AF09B0
:100CA000A80A031D662EA90A031D662EAA0A031DA3
:100CB000662EAB0A031D662EAC0A031D662EAD0A16
:100CC000031D662EAE0A031D662EAF0A20002808FB
:100CD000A0002908A1002A08A2002B08A3002C08C4
:100CE000A4002D08A5002E08A6002F08A7000800C4
:100CF0002000DE004F0886008701403FD100413FC1
:100D0000D20051088400520885001200253A031DC4
:100D1000252F4F08860087010130810741310318D4
:100D2000810A2100AE01AF01B201B301FF30B00072
:100D3000FF30B10020004F0886008701403FD100FE
:100D4000413FD20051088400520885001200643AE5
:100D50000319B92E4F0886008701403FD100413F5B
:100D6000D20051088400520885001200693A031D20
:100D7000F32E4F08860087010130810741310318A7
:100D8000810A50088600870101088400850102302D
:100D90008107003FD100013FD2005108D600520820
:100DA000D700890D893B8909D800D900DA00DB001A
:100DB000DC00DD005608B1005708B2005808B30047
:100DC0005908B4005A08B5005B08B6005C08B700C3
:100DD0005D08B8005E0882313B2220003208D00056
:100DE0003108CF0008004F0886008701403FD1003E
:100DF000413FD20051088400520885001200253A74
:100E0000031D1A2F4F0886008701013081074131E9
:100E10000318810A2530F4000030F5005E08D10087
:100E20005108F6008831EF2001302000CF0000305B
:100E3000D00008004F08860087010130810741314A
:100E40000318810ACF01D00108004F0886008701EE
:100E5000403FD100413FD200510884005208850034
:100E60000008D300D4015308F4005408F5005E08CC
:100E7000D5005508F6008831EF20863120004F0854
:100E8000860087010130810741310318810A142F40
:100E900021005108093E8600013087000108803A90
:100EA0002000EE00210051080E3E86000130870030
:100EB0000103FF3A803A2000EE0203188D2F210033
:100EC00051080A3E86000130870001308107413118
:100ED0000318810A51080A3E860001308700403F0E
:100EE0002000EE00413FEF0000306F024130031957
:100EF0006E02031CD72F210051080A3E86000130E4
:100F000087000030C03FC13F510886000130870094
:100F10000108893124218731D72F21005108093E4A
:100F200086000130870001082000EE00EF01EE1B73
:100F3000EF03210051080E3E86000130870020009B
:100F40006F08803A803C031DA72F6E08010203182A
:100F5000CE2F02302000EE0021005108023E860014
:100F60000130870020006E088100210051080A3EF0
:100F70008600013087000030C03FC13F5108860025
:100F80000130870001082000EE006E082100CC002F
:100F900065088A0064080A008731D72F21005108AC
:100FA0000A3E8600013087000030C03FC13F21006B
:100FB00051080C3E86000130870001308107413125
:100FC0000318810A51080C3E860001308700160084
:100FD000403A2000EE001600EE04031D0800210038
:100FE00051080C3E8600013087000030C03FC13FF1
:100FF00051088C31EC2408001630210097000800BD
:10100000FF3020009B009A01911004309C000800E2
:10101000F9007208F8007108F7007908F500750802
:10102000FA000130F3020030F43B730A0319740A2A
:101030000319080077088400780885000008F50087
:101040007508F6000130F7070030F83D7608F50026
:101050007A08860001308700750881000130F500AC
:101060007508FA071128F300F4017408F100F20181
:10107000F135F20D5030710784009830723D8500D3
:1010800000087306031D4628003008007408F100AC
:10109000F201F135F20D5130710784009830723D44
:1010A000850000087306031D572801300800013031
:1010B000F1007108F407023074020318442835283F
:1010C000F900790A860001308700010896317326FD
:1010D000883175082000A0007608A100A201A301B4
:1010E0007908053E8600013087002008C03F2108AE
:1010F000C13F2208C23F2308C33F7908053E86004E
:1011000001308700043081354131810D4131810D3D
:101110004131810D7D31890B832808002000E400D6
:101120006008E6005F08E5002100AC01AD01200089
:10113000650884006608850012000319B42865302C
:10114000E2006208CF006108E3006308D000640891
:1011500086317826883120004F082100AC07200016
:1011600050082100AD3D972821002D082000E00007
:1011700021002C082000DF0008007C08A03E86002B
:101180008701810123001D1DD0287C08A03E860018
:1011900087018114220050088A004F080A00883114
:1011A00023009D1CDE287C08A03E860087010115D7
:1011B00022004E088A004D080A0088317C08A03EB3
:1011C0008600870101080319EC2822004C088A00D8
:1011D0004B080A008831080096315B260800760823
:1011E000031D7608031DF82874089431482408006C
:1011F0007608033E860087011600010403191B29A7
:101200007608033E86008701403FF700413FF80023
:10121000760A86008701403FF900413FFA007A08CC
:10122000803AFB007808803A7B02031D1929770871
:10123000790203180800760A8600870101308107C9
:1012400041310318810A0800F9007908F7000330DA
:10125000F735FF3E031D28297735A03EF8007808B2
:10126000FA007A08023E86000130870081017A0880
:10127000053E8600013087000030C03F0030C13F8E
:10128000C23FC33F7A080A3E860001308700003023
:10129000C03FC13F7A080C3E860001308700003015
:1012A000C03FC13F7A0A86000130870001089531AE
:1012B0008E2508002000B30033088831332089319F
:1012C000F80078082000B000330895317D25893179
:1012D000003A0319852920003308063E86000130B4
:1012E00087003035A83E84008501403F0002F400AD
:1012F0000131413F003BF5009631442689317508A4
:101300002000B2007408B10088292000B101B201A8
:1013100000303202653003193102031C932933086F
:10132000943194240800330894319C24080021004F
:101330009112BD30F1000830F200943170248931EF
:10134000210011120F30F1001730F2009431762491
:101350008931083023009F0090309D0024309E008A
:1013600040309B0003309C002D30F1001430F2001F
:101370009431642489314030F1001430F20094310A
:101380006A2489313130F1001430F20094315E2446
:101390002100C101C501C4010830F3007308EF004A
:1013A000FC01C301C20191160800FB007B08023E4C
:1013B00086000130870001080319112A7B08033ECB
:1013C000860001308700403FF900413FFA00FA36BD
:1013D000F90CFA36F90C7B08033E860001308700D1
:1013E0007908810241317A08813B7F317B0A86008E
:1013F000013087000108963173267508F9007608D8
:10140000FA00FA36F90CFA36F90C7B08033E86002E
:10141000013087007908810741317A08813D7F31A9
:1014200008007B0A86000130870001089631732688
:101430007B08033E8600013087007508C03F7608B0
:10144000C13F08002000B0002100321C302A2000DB
:101450003008AB002B08A000280897318B278A3171
:101460002000AA1B382A2A08AF002908AE003A2A11
:10147000AE01AF01AC01AD012D08803AAB002F08E1
:10148000803A2B02031D462A2E082C0203185A2AE2
:101490002030F4000030F50020003008AB002B08AD
:1014A000F6008831EF208A3101302000AC0700308F
:1014B000AD3D3C2A21003218662A20003008AB00DE
:1014C0002B08A000280897318B278A312000280894
:1014D00096318B2620002E087107A8002F08723D38
:1014E000A90008002100D8005808D6000330D635DE
:1014F000FF3E031D772A5635A03ED7005708D90076
:10150000590A860001308700010895312E258A315D
:10151000003A031908002100590A860001308700AB
:101520000108963102268A31003A03190800210089
:1015300059089431F6248A31210059088C316524E8
:101540008A3121005908023E8600013087000330AD
:101550000102031CB32A59088600013087000108E4
:10156000893124218A3121005908D6005608D1003A
:101570005908023E8600013087000135DC3E8600B6
:101580008701413F8A00403F0A008A31080020005D
:10159000D1000530CF004F08D0005108031DDD2ACF
:1015A0004E08031DDD2AFF30080001302000D00264
:1015B0005008031DDD2AFC3008004E08CF004F08FC
:1015C000B2005108803160208A31003A031DD52ACB
:1015D000200051080319F02A510889315A218A3113
:1015E00020004E080319F82A4E0889315A218A3101
:1015F00020005108953112258A31003A0319082B31
:10160000200051089431BD248A31003A031D182B63
:1016100020004E08953112258A31003A0319212BFA
:1016200020004E089431BD248A31003A0319212B41
:1016300020004E08CF004F08C10051088E31AA2665
:10164000080000300800210051080A3E86000130E1
:101650008700403FD200413FD300003053020930A1
:10166000031952020318392B5108883160208B313D
:101670003D2B51088C31EC248B31210051080A3E5E
:101680008600013087000130810741310318810A4B
:1016900051080A3E860001308700403FD200413F9A
:1016A000D30000305302103003195202031C08000B
:1016B0005108053E860001308700403FD200413F7F
:1016C000D300423FD400433FD5000430D536D40C7C
:1016D000D30CD20C890B662B5108033E86000130D7
:1016E00087005208C03F5308C13F5108023E8600A0
:1016F000013087008101810A51080A3E86000130CD
:1017000087000030C03FC13F0800973149278B3127
:10171000023A031DA22B2100B401B5010130CD0016
:101720004D08C00702304006031DA22BC001023045
:10173000B6060030B706B61CA02BBC01BC0AA22B13
:10174000BD01BD0A2100B61C0800973149278B3125
:10175000013A031DE42B2100380A39040319E42B54
:1017600038080F39CD00CD0A38084D06F0394D063E
:10177000B80000302000E7009830E8002100380E63
:101780000F39CD00CE014D082000E90021004E08A0
:101790002000EA00210038080F39CF00D0014F089F
:1017A0002000EB00210050082000EC009531B2250C
:1017B000210038080F39CD00CD0E38084D060F39FD
:1017C0004D06B800BF010800973149278B31043A14
:1017D000031D0800210038083904031908003808DF
:1017E0000F39CD00CD03B42B210051080A3E8600ED
:1017F00001308700403F2000EE00413FEF000730FE
:101800006F02D03003196E02031C202C21005108F6
:101810008600013087000108893124218B312100A5
:10182000510886000130870001082000EE006E0894
:101830002100CC0063088A0062080A008C3108008D
:1018400021005108093E8600013087000108803AD6
:101850002000EE00210051080E3E86000130870076
:1018600051080E3E84000130850000360102803AA6
:101870002000EE020318080021005108023E8600F5
:10188000013087008101810A51080A3E860001303B
:1018900087000030C03FC13F51080C3E8600013038
:1018A0008700FF30C03FFB30C13F51088600013048
:1018B000870001082000EE006E082100CC006308BC
:1018C0008A0062080A008C3108002000A00020086D
:1018D000053E860001308700403FF100413FF200A5
:1018E000423FF300433FF4000430F436F30CF20CB3
:1018F000F10C890B752C2008033E8600013087000F
:10190000403FF500413FF6007508F7007608F80003
:10191000F901FA017108F7027208F83B7308F93B04
:101920007408FA3B7A08A4007908A3007808A2009A
:101930007708A1002108F1002208F2002308F30033
:101940002408F40020080F3E860001308700010AB9
:10195000AD2CF437F30CF20CF10C890BA92C7408A4
:10196000A4007308A3007208A2007108A100A41BC0
:10197000CE2C2408031DC62C2308031DC62C2208C8
:10198000031DC62C80302102031CCE2C0030A40085
:101990000030A3000030A2007F30A100A41FE22C81
:1019A00080302102FF30223BFF30233BFF30243BBD
:1019B0000318E22CFF30A400FF30A300FF30A20088
:1019C0008030A1002108F1002008093E8600013086
:1019D0008700710881000800F7008B1F362D8B13DC
:1019E0007708053E860001308700403FF100413F07
:1019F000F200423FF300433FF4000430F436F30CAE
:101A0000F20CF10C890BFE2C7708053E86000130A4
:101A100087007108810241317208813B41317308AE
:101A2000813B41317408813B7D317708033E86005C
:101A300001308700403FF100413FF2007108F300A0
:101A40007208F400F501F6017708053E86000130C2
:101A500087007308810741317408813D4131750861
:101A6000813D41317608813D8B1708007708053E9E
:101A7000860001308700403FF100413FF200423FC5
:101A8000F300433FF4000430F436F30CF20CF10C95
:101A9000890B442D7708053E8600013087007108C8
:101AA000810241317208813B41317308813B4131F0
:101AB0007408813B7D317708033E86000130870042
:101AC000403FF100413FF2007108F3007208F4005A
:101AD000F501F6017708053E86000130870073089E
:101AE000810741317408813D41317508813D4131A3
:101AF0007608813D08002000D5005508D200D301AA
:101B0000D235D30D5030520784009830533D8500B4
:101B10000008D4005408D7005508D200D301D235AC
:101B2000D30D5130520784009830533D8500000892
:101B3000D4005408D8005808D2005208CE005708E4
:101B40008A31C7228D312000D3005308D600EC2DF6
:101B5000570895317D258D31003A0319C92D210093
:101B60004708031DB82D200057089731D8278D311D
:101B7000200057089431A4248D3120005708860096
:101B8000013087000108D2005208F100943130245E
:101B90008D312000580895317D258D31003A03198B
:101BA0000F2E21004708031DDA2D20005808973119
:101BB000D8278D31200058089431A4248D3120007D
:101BC00058088600013087000108D2005208F10051
:101BD000943130248D310F2E5608D200D301D21B00
:101BE000D3035308003A0319F92DFF3A0319FE2DC8
:101BF0000F2E5208003A0319A82D0F2E5208FB3A57
:101C000003190F2E073A03190F2E013A03190F2E4D
:101C1000033A03190F2E013A03190F2E0F2E20003D
:101C2000560808002000B1003108883133208E3179
:101C3000F80078082000B00031089431B4248E31C7
:101C4000003A031D562E20003035A83E860087013D
:101C5000403FF800413FF9003108043E8600013062
:101C600087000108FA00FB010930FA35FB0D890BEA
:101C7000352E79087B02031D3F2E78087A0203185F
:101C8000522E0130F8003108053E860001308700F1
:101C9000780881070F300102031C080031089531D4
:101CA0003D250800310895313D2508002000310808
:101CB000043E8600013087000108F800F901F8357C
:101CC000F90D3108063E8600013087003035A83E08
:101CD00084008501403F0002F4000131413F003B98
:101CE000F500963144268E3179087502031D7A2E4F
:101CF0007808740203188A2E2030F800200031087A
:101D0000023E860001308700780881003108953155
:101D1000042508000230F80020003108033E860048
:101D200001308700780881073108033E86000130C2
:101D3000870020300102031C08002030F800310821
:101D4000023E860001308700780881003108953115
:101D5000042508002000C40021003B082000C30027
:101D600021003A082000C200C336C20CC336C20CA0
:101D700021003A0820004207C50021003B0820004E
:101D8000433DC600210068082000C2004208C70089
:101D9000210029082000CA00210028082000C900CD
:101DA00021002B082000CC0021002A082000CB00B5
:101DB000CD014D084B3E840098300318013E85004C
:101DC0000008C20042082100E807AE30680203188C
:101DD000EF2EAE302000C20042082100E807053097
:101DE0002000C2004208C8004108C2004208B200F8
:101DF0004408803160208E31003A0319072F0130EA
:101E00002000C8024808031DF42EFC300800210001
:101E10003B0820004602031D112F21003A08200034
:101E200045020318312F21003B082000C600210085
:101E30003A082000C500210068082000C2004208BE
:101E4000C700210029082000CA002100280820001E
:101E5000C90021002B082000CC0021002A08200006
:101E6000CB000130C2004208CD0705304D02031CF3
:101E7000D92E4708C20042082100E80020004A0885
:101E80002100A900200049082100A80020004C08DA
:101E90002100AB0020004B082100AA000030080000
:101EA000F9007908031908007208031D5A2FF6017A
:101EB000F7015E2F8030F6000030F7007608F3005F
:101EC0007308F800790A8600013087000108F300E2
:101ED0007808113EF400F5010730F53D74088600DE
:101EE00075088700730881007908053E8600013077
:101EF00087000108F3007808193EF400F501073067
:101F0000F53D74088600750887007308810078081D
:101F1000133EF300F4010730F43D730886007408A3
:101F2000870050308100FE30F3007808183E8600AC
:101F300087010730873D7308810579089431BD24F6
:101F40008F31003A0319B82F7908023E860001301C
:101F500087000108F3007808163EF400F501073009
:101F6000F53D740886007508870073088100CB2F43
:101F70007808163EF300F4010730F43D730886003C
:101F8000740887002030810079089431B4248F319F
:101F9000003A0319DE2F7908033E860001308700DE
:101FA0000108F3007808173EF400F5010730F53D0D
:101FB00074088600750887007308E92F7808173EB3
:101FC000F300F4010730F43D7308860074088700BD
:101FD000203081007908043E860001308700010826
:101FE000F300F4010930F335F40D890BF32F72354A
:101FF000A83E860087017308C03F7408C13F0800EF
:10200000003402340034003400340034003400342E
:1020100000340034003400340034003464340134BB
:10202000013400340034003400340034003400340F
:10203000003400340034003400340034643401349B
:1020400002340134003400340034003400340034ED
:10205000003400340034003400340034643401347B
:10285A00080008000800080096315B2608002100DD
:10286A00BF01080020001C15080020001C110800E8
:10287A0096312E26080023001D121D1608008B1003
:10288A009431C7240800F3007308973167270800BA
:10289A00F100710820009B00080072082100E30083
:1028AA007108E200080072082100E5007108E400DE
:1028BA00080072082200CC007108CB0008007208D8
:1028CA002200D0007108CF00080072082200CE0052
:1028DA007108CD00080072082100EC007108EB00B5
:1028EA00080072082100EE007108ED000800720865
:1028FA002100EA007108E9000800F030210099007F
:10290A00220096010800640080010131890B892C9C
:10291A000034FE0012001E00FE0B8F2C0034F10062
:10292A007108083E86000130870081140800F10012
:10293A007108083E86000130870081100800F10006
:10294A007108083E86000130870001140800F10072
:10295A007108083E86000130870001100800F10066
:10296A007108083E860001308700010E013908000F
:10297A00F1007108083E860001308700010C890CBD
:10298A0001390800210069086A04031908006A0865
:10299A008A0069080A00943108008B102100151377
:1029AA002E30F1001430F20094317C240B1608000A
:1029BA009531202594319631F32694319531C525E8
:1029CA00943195315C25080023340B34483407349C
:1029DA00F4340B342F3414342F3414343034143484
:1029EA00AE342000A0008B1F002D8B1320088931E4
:1029FA00D5218B17080020088931D5210800F1005C
:102A0A007108083E86000130870001157108083EEA
:102A1A0086000130870001120800F1007108031DC9
:102A2A00182D003008007108083E86000130870022
:102A3A00010C01390800FA017A089531D825953137
:102A4A000130F9007908FA0703307A0203180800FE
:102A5A00212DF6000930F5007508F1007608953148
:102A6A006C25283E860001308700010801390800DC
:102A7A00F1007108083E86000130870001167108CE
:102A8A00033E8600013087008101810A0800210087
:102A9A00DB015B088A317222953101302100DA00AC
:102AAA005A08DB0703305B02031808004E2DFC307E
:102ABA0020009C052E0091012F00910190302E00DC
:102ACA0092004030940040302F0094000800F40037
:102ADA00F301741C742D7108F2007208F3070310D5
:102AEA00F10D0310F40C7408031D6E2D7308080011
:102AFA00F200720803198C2D7208083E8600013014
:102B0A008700010CF100F10C710C0139080000304A
:102B1A000800F60003307602031808000930F500B1
:102B2A007508F100760895316C25283E860001303B
:102B3A00870001110800F600033076020318080026
:102B4A000930F5007508F100760895316C25283EA4
:102B5A008600013087008115080069302000ED00E9
:102B6A006D082100CB0020006808E0006708DF003C
:102B7A00CB30ED006D08E100003088318E2008006E
:102B8A002030F2007208F3003230F2007308720249
:102B9A00031C080073089431AC2495310930F20003
:102BAA007208F307C92DF80078089531A0259531E8
:102BBA00780895318E2595310930F7007708F100AC
:102BCA00780895316C259531203E9431AC24080063
:102BDA009631A32695319431822495318731FC2789
:102BEA0095318831002095319431D224953189313B
:102BFA00972195319431DD240800F60003307602DE
:102C0A000318162E0930F5007508F100760895317B
:102C1A006C25283E860001308700010C890C013999
:102C2A000800003008002000DA015A088D317B259F
:102C3A009631003A0319232E003008000130200093
:102C4A00D9005908DA0702305A02031C1A2E013039
:102C5A000800F5017508F4000330F435FF3E031D42
:102C6A00322E7435A03E9731B12796310130F400E7
:102C7A007408F50703307502031808002F2E75082B
:102C8A00803AF60080307602031D4D2E0130740220
:102C9A00031808007409F6007509F700F60A031903
:102CAA00F70A7608F4007708F500080023001908E7
:102CBA00F0007C083B3E86000130870070088100E6
:102CCA000130F0007008FC0708307C020318FC0190
:102CDA000130F00070082100C2070800F800033034
:102CEA0078020318882E0930F7007708F10078086F
:102CFA0095316C25263E860001308700403FF5005D
:102D0A00413FF6000800F501F6010800F5007508D4
:102D1A00F3007308F4007508860001308700010883
:102D2A0003199C2E0130F3007308F507902E7408DE
:102D3A007502F100F201F11BF203080022008C0176
:102D4A008D018E013F3021008C0060308D005330A0
:102D5A008E005B3023008E0040308D0033308C00B3
:102D6A0024008D018C012100951722009D01080085
:102D7A00F200033072020318D62E7208F1000330F3
:102D8A00F135FF3E031DC52E7135A23E8600013086
:102D9A00870002300106031DD42E013008000030DE
:102DAA00080000300800003469343034103420340C
:102DBA0000340034003400340134313430341034F7
:102DCA0020340034003400340034023461343034A6
:102DDA001034203400340034003400340030F10060
:102DEA009030F2003030F3000030F400A030883127
:102DFA00082096312000A00120088931242196312B
:102E0A000130FB007B082000A007033020020318D2
:102E1A000800012F083021006F0203182A2F4408E6
:102E2A00433E860001308700010823009A000130E2
:102E3A00F00070082100C407083044020318C401D6
:102E4A000130F0007008EF07080011120800210095
:102E5A00C801C80A963118269731003A031D372F40
:102E6A000030080095314C25973180310220973186
:102E7A002200D10051082100C8009531C52597319B
:102E8A0094313D2401300800F501F60176089631A7
:102E9A00BD269731013A031D5D2F0130F300760AF2
:102EAA00572FF335890B562F7308F4007408F5046D
:102EBA000130F3007308F60703307602031C4B2F28
:102ECA0075080800F20021006F08031D6E2F6400C8
:102EDA00682F111A742F720823009A00882F111272
:102EEA007208F1004508433E8600013087007108E8
:102EFA0081000130F1007108C50708304502031846
:102F0A00C5010130EF022100111608002000A700B8
:102F1A00A501A60125082707A1002108860001307E
:102F2A0087000108A2002208A40024080319080047
:102F3A002408A100A2012108F4002208F5002008B3
:102F4A00A3002308F6008831EF20973101302000D2
:102F5A00A5070030A63D8F2FF3007308023E8600B6
:102F6A000130870002300106031D080073080A3E7B
:102F7A008600013087000130810741310318810A38
:102F8A0073080A3E86000130870016000104031DFB
:102F9A00080073080A3E860001308700FF30C03FF0
:102FAA00FF30C13F0800F700770888313320973196
:102FBA00F5007508F6008B1FF22F8B137635A83EA5
:102FCA00860087017708063E840001308500403F6D
:102FDA00803F413F813F8B1708007635A83E860027
:102FEA0087017708063E840001308500403F803F14
:102FFA00413F813F08006C346134733474346C345B
:10300A006534763465346C342D342D342534643487
:10301A007C347C347C346C346534763465346C347A
:10302A002D342D34253464340D340A3400342D34CF
:10303A002D342D342D342D342D34253464342D344F
:10304A002D342D342D342D342D342D342D342D346E
:10305A000D340A3400342D342D342D342D344F34AC
:10306A00463446342D342D342D342D340D340A345F
:10307A0000342D342D342D342D344F344E342D3428
:10308A002D342D342D340D340A34003400340D34EB
:0E309A001C341E3417342934203400343234F0
:020000040001F9
:04000E00ECFDFFFF07
:00000001FF
