:020000040000FA
:1000000080311D28003008007E1480310B1A8B1CB3
:100010000D289431FB2480311B280B1F1B28210045
:10002000911E1B282000911E1B28210069088A00B0
:1000300068080A0080317E10090080311F289B303B
:10004000840095308500D3308600003087000D3065
:100050009531432580318E308400973085005030B3
:100060008600013087001B30953143258031FC012B
:10007000A030840000308500333095313D2580313B
:100080002030840001308500303095313D258031AD
:10009000A030840001308500203095313D257E1050
:1000A000200083317F2B2000C000BB01BC01BD01BB
:1000B000BE01BA01B701B8014008031999283208F6
:1000C000031999284008083E8600013087008119ED
:1000D00079283208083E860001308700811D792882
:1000E0004008083E8600013087008115B701B70A35
:1000F000AE283208083E860001308700811990281A
:100100004008083E860001308700811D9028320893
:10011000083E8600013087008115B801B80AAE2874
:100120004008083E8600013087008119AE28320859
:10013000A6284008031D9F283208031D9728400861
:100140000319AE283208031DAE284008083E860079
:10015000013087008119AE2800300800320895313F
:10016000C4258031003A0319B8282000BA01BA0A20
:100170002E0012082000B3003308B4002E0013082C
:100180002000B3003308B5002F0013082000B3008F
:100190003308B6009631002680312000400803194C
:1001A000E4284008043E8600013087000108FF3E35
:1001B000B3003308BF00B90140302E0098002F0073
:1001C000980122001D14F7283208043E86000130F1
:1001D00087000108FF3EB3003308BF00B901B90A28
:1001E0002E00980140302F00980022001D10F201CF
:1001F00020004008873142278031F201F20A2000B6
:100200003208873142278031210050105011D0111F
:100210005F089531032580319431EE24803121002F
:10022000C401C50120003908031D1F29111B1A290B
:100230002100D0102000111F1A2911132729121B89
:1002400023292100D0102000121F2329121321304E
:10025000B30033082E00980621302000B300330885
:100260002F009806C0302000B30033082E009406FB
:10027000C0302000B30033082F00940620003F1840
:1002800088292E001A082100B0072E001B08210023
:10029000B13D2F001A082100B2072F001B082100D2
:1002A000B33D20003A08031D6D292E001A082000D6
:1002B0003D02F4002E001B0820003E3BF500973164
:1002C0001227803174082100C4077508C53D2E002F
:1002D0001B082000BE002E0084292F001A082000D1
:1002E0003D02F4002F001B0820003E3BF500973133
:1002F0001227803174082100C4077508C53D2F00FE
:100300001B082000BE002F001A082000BD00BD29D8
:100310002E001A082100B0022E001B082100B13B5C
:100320002F001A082100B2022F001B082100B33B46
:1003300020003A08031DA3292E001A0820003B02C2
:10034000F4002E00A9292F001A0820003B02F40017
:100350002F001B0820003C3BF5009731122780310D
:1003600074082100C4077508C53D2E001B08200035
:10037000BC002E001A082000BB003F08031DC22944
:100380002100501401302000BF022100D01CCA29D6
:1003900050155014D014501C12299431F12480317E
:1003A000200034082E009200200035082E00930013
:1003B000200036082F0093002100501DE129FB305A
:1003C0000800D01DE529FA3008002000370803197D
:1003D000EF294008083E8600013087008111380867
:1003E0000319F8293208083E860001308700811180
:1003F0004008963121268031003A03190C2A20004A
:10040000400895317A258031003A031D0C2A2000DE
:1004100040088E311E268031200032089631212678
:100420008031003A0319212A2000320895317A25BB
:100430008031003A031D212A200032088E311E2609
:1004400080312E0096012F0096012E0097012F007B
:1004500097012E0011102F001110AC282000BD00B4
:100460003008C4003108C5003208C6003308C70090
:100470003408C8003508C9003608CA003708CB0060
:100480004430860000308700473FB800B81F4A2A32
:1004900001304B2A00302000B900BA013908C200EF
:1004A0003A08C300420843040319742AC409C50961
:1004B000C609C709C809C909CA09CB09C40A031D65
:1004C000742AC50A031D742AC60A031D742AC70AA2
:1004D000031D742AC80A031D742AC90A031D742A3D
:1004E000CA0A031D742ACB0A2100B91B7B2AFD30DE
:1004F000BA05FF30BB053908803A2000B8008030CB
:100500003802031D862A01302100380203188E2A82
:1005100001302000BE000030BF00962A21003908BB
:100520002000BF00210038082000BE00210037084D
:100530002000C100210036082000C000420843040A
:10054000031DA52A21003A1DAA2AFF302000C0075A
:10055000FF30C13D1F302000CC000030CD00230013
:10056000BF01402B200044084504460447044804CA
:1005700049044A044B04031DD72A3F08803AB800B7
:1005800080303802031DC62A01303E020318D72AE4
:1005900020004108803AB80080303802031DD22A7A
:1005A00001304002031C4C2B2100BA1C4C2BFF30A5
:1005B0002000CC07FF30CD3D0A30A000A101A201F0
:1005C000A301A401A501A601A7014408A8004508AC
:1005D000A9004608AA004708AB004808AC00490833
:1005E000AD004A08AE004B08AF0085319625823138
:1005F00020002108F5002008F400973112278231ED
:100600007408303E2000B8004C08A03E860001303F
:10061000870038088100FF30BE07FF30BF3DFF3044
:10062000C007FF30C13D0A30A000A101A201A30113
:10063000A401A501A601A7014408A8004508A90036
:100640004608AA004708AB004808AC004908AD00BE
:100650004A08AE004B08AF008431A3248231200049
:100660002008C4002108C5002208C6002308C700CE
:100670002408C8002508C9002608CA002708CB009E
:1006800020004D08803AB80080303802031D4A2B04
:1006900001304C020318B22A200042084304031D13
:1006A000542B21003A1D6C2BFF302000CC07FF306B
:1006B000CD3D42084304031D5F2B2B30602B2D30B2
:1006C000BB000030BC003B08B8004C08A03E8600D0
:1006D000013087003808810020004C08A03EB80097
:1006E0003808A7004108A9004008A8003D088A3141
:1006F000A62220002808B1002708B0000800963183
:10070000A42683314B302000E6009830E700963174
:10071000322683318B170B17EB30F1001430F200C7
:10072000953113258331E830F1001430F200953112
:100730000D2583312100BE01BF019731C5278331CB
:10074000003A03199D2B21004703031DBF2B3C08D2
:100750000F39EA00EA033C086A06F0396A06BC0071
:100760003C080F39003A031DBF2B22008E11A03028
:100770000032890BB82B22008E152100C7014C03D3
:10078000031DD02B0130C0070030C13D00304102B5
:10079000C83003194002031CD02BC001C101CC0199
:1007A000C21C252C9731E2278331013A031DEA2B25
:1007B00021003E0A3F040319EA2B0130EA006A08CF
:1007C000CB0764304B06031D252C3E080F39EA0089
:1007D000EA0A012C9731E2278331043A031D252CC4
:1007E00021003E083F040319252C0130EA006A0865
:1007F000CB0764304B06031D252C3E080F39EA0059
:10080000EA033E086A06F0396A06BE001C30200082
:10081000E6009830E70021003E080F39EA00EB01BE
:100820006A082000E80021006B082000E9009631EA
:100830003226833121003E080F39EA00EA0E3E08D5
:100840006A060F396A06BE00CB0121004903031D69
:10085000622C0130C0070030C13D003041026430DD
:1008600003194002031C532CC001C1013E080F397B
:10087000EA00EA033E086A06F0396A06BE001C3048
:100880002000E6009830E70021003E080F39EA001A
:10089000EB016A082000E80021006B082000E90055
:1008A00096313226833121003E080F39003A031D6C
:1008B000622CC90130302000E6009830E700963104
:1008C0003226833121004803031D9D2B0130C007D0
:1008D0000030C13D00304102643003194002031C66
:1008E000902CC001C1013E080F39EA00EA0A3E0817
:1008F0006A06F0396A06BE001C302000E600983017
:10090000E70021003E080F39EA00EB016A082000E9
:10091000E80021006B082000E9009631322683317F
:1009200021003E0E0F39EA003E080F396A06031D0A
:100930009D2BC8013E302000E6009830E70096313C
:10094000322683319D2BF301203086000030870052
:10095000473FF100F11FCD2C2000A009A109A209F9
:10096000A309A409A509A609A709A00A031DCB2C60
:10097000A10A031DCB2CA20A031DCB2CA30A031D25
:10098000CB2CA40A031DCB2CA50A031DCB2CA60A35
:10099000031DCB2CA70AF301F30A28308600003090
:1009A0008700473FF100F11FF82C2000A809A90992
:1009B000AA09AB09AC09AD09AE09AF09A80A031D24
:1009C000F42CA90A031DF42CAA0A031DF42CAB0A6B
:1009D000031DF42CAC0A031DF42CAD0A031DF42CEA
:1009E000AE0A031DF42CAF0A0130F1007108F306C2
:1009F00074308600003087000830F10000301E009F
:100A0000F10BFF2C200020082104220423042404DD
:100A10002504260427040319632DF201F20AA71BFB
:100A20001E2DA035A10DA20DA30DA40DA50DA60D83
:100A3000A70D0130F1007108F2070F2DF435F50D07
:100A4000F60DF70DF80DF90DFA0DFB0D27082F0225
:100A5000031D442D26082E02031D442D25082D02BA
:100A6000031D442D24082C02031D442D23082B02B2
:100A7000031D442D22082A02031D442D21082902AA
:100A8000031D442D20082802031C572D2008A8020E
:100A90002108A93B2208AA3B2308AB3B2408AC3B16
:100AA0002508AD3B2608AE3B2708AF3B7414A7369C
:100AB000A60CA50CA40CA30CA20CA10CA00C01303C
:100AC000F202031D1E2D73080319842DF409F50984
:100AD000F609F709F809F909FA09FB09F40A031DEF
:100AE000842DF50A031D842DF60A031D842DF70AB3
:100AF000031D842DF80A031D842DF90A031D842D7E
:100B0000FA0A031D842DFB0A74082000A000750852
:100B1000A1007608A2007708A3007808A40079084D
:100B2000A5007A08A6007B08A7000800F30128307A
:100B3000860000308700473FF100F11FC02D2000E4
:100B4000A809A909AA09AB09AC09AD09AE09AF0901
:100B5000A80A031DBE2DA90A031DBE2DAA0A031D46
:100B6000BE2DAB0A031DBE2DAC0A031DBE2DAD0A62
:100B7000031DBE2DAE0A031DBE2DAF0AF301F30AFD
:100B80002030860000308700473FF100F11FE72D3D
:100B90002000A009A109A209A309A409A509A60981
:100BA000A709A00A031DE72DA10A031DE72DA20A2C
:100BB000031DE72DA30A031DE72DA40A031DE72D3E
:100BC000A50A031DE72DA60A031DE72DA70A20008D
:100BD00020082104220423042404250426042704D5
:100BE00003193F2EF201F20AA71B032EA035A10D17
:100BF000A20DA30DA40DA50DA60DA70D0130F100AA
:100C00007108F207F42D27082F02031D212E260854
:100C10002E02031D212E25082D02031D212E24083E
:100C20002C02031D212E23082B02031D212E220836
:100C30002A02031D212E21082902031D212E20082E
:100C40002802031C332E2008A8022108A93B2208F1
:100C5000AA3B2308AB3B2408AC3B2508AD3B260848
:100C6000AE3B2708AF3BA736A60CA50CA40CA30CE3
:100C7000A20CA10CA00C0130F202031D032E73087C
:100C80000319602EA809A909AA09AB09AC09AD0985
:100C9000AE09AF09A80A031D602EA90A031D602E24
:100CA000AA0A031D602EAB0A031D602EAC0A031DA9
:100CB000602EAD0A031D602EAE0A031D602EAF0A22
:100CC00020002808A0002908A1002A08A2002B085B
:100CD000A3002C08A4002D08A5002E08A6002F08AC
:100CE000A70008002000DD004E0886008701403F75
:100CF000D000413FD1005008840051088500120007
:100D0000253A031D1F2F4E088600870101308107F9
:100D100041310318810A2100B601B701BA01BB01B4
:100D2000FF30B800FF30B90020004E088600870170
:100D3000403FD000413FD100500884005108850059
:100D40001200643A0319B32E4E0886008701403F13
:100D5000D000413FD10050088400510885001200A6
:100D6000693A031DED2E4E08860087010130810788
:100D700041310318810A4F08860087010108840069
:100D8000850102308107003FD000013FD1005008AB
:100D9000D5005108D600890D893B8909D700D800B4
:100DA000D900DA00DB00DC005508B0005608B100BD
:100DB0005708B2005808B3005908B4005A08B500E3
:100DC0005B08B6005C08B7005D0882312E22200067
:100DD0003108CF003008CE0008004E088600870199
:100DE000403FD000413FD1005008840051088500A9
:100DF0001200253A031D142F4E088600870101308A
:100E0000810741310318810A2530F3000030F400D6
:100E10005D08D0005008F5008931B1210130200073
:100E2000CE000030CF0008004E0886008701013058
:100E3000810741310318810ACE01CF0108004E0815
:100E400086008701403FD000413FD1005008840018
:100E5000510885000008D200D3015208F30053085E
:100E6000F4005D08D4005408F5008931B1218631C1
:100E700020004E08860087010130810741310318A8
:100E8000810A0E2FF9007908031908007208031D62
:100E90004C2FF601F701502F8030F6000030F7009C
:100EA0007608F3007308F800790A8600013087009D
:100EB0000108F3007808113EF400F5010730F53D14
:100EC0007408860075088700730881007908053E5C
:100ED0008600013087000108F3007808193EF4000D
:100EE000F5010730F53D7408860075088700730822
:100EF00081007808133EF300F4010730F43D7308D5
:100F000086007408870050308100FE30F3007808B6
:100F1000183E860087010730873D730881057908F0
:100F200095317A258731003A0319AA2F7908023EB4
:100F30008600013087000108F3007808163EF400AF
:100F4000F5010730F53D74088600750887007308C1
:100F50008100BD2F7808163EF300F4010730F43D00
:100F60007308860074088700203081007908953165
:100F700071258731003A0319D02F7908033E860086
:100F8000013087000108F3007808173EF400F501EE
:100F90000730F53D74088600750887007308DB2F5D
:100FA0007808173EF300F4010730F43D730886001B
:100FB00074088700203081007908043E86000130E3
:100FC00087000108F300F4010930F335F40D890BB3
:100FD000E52F7235B03E860087017308C03F740864
:100FE000C13F0800FA017A0896318F268731013017
:100FF000F9007908FA0703307A0203180800F32F82
:10100000F1002000111E0128710823009A00080039
:101010009731E2278831023A031D08002100C00100
:10102000C1010130F7007708CC0702304C06031DE0
:101030000800CC010230C2060030C306C21C2328BF
:10104000C801C80A0800C901C90A08002000A60092
:10105000A401A50124082607A0002008860001306D
:1010600087000108A1002108A30023080319080034
:101070002308A000A1012008F3002108F4007B0848
:10108000A2002208F5008931B12188310130200009
:10109000A4070030A53D2A28F3007308023E86000D
:1010A0000130870002300106031D080073080A3E64
:1010B0008600013087000130810741310318810A21
:1010C00073080A3E86000130870016000104031DE4
:1010D000080073080A3E860001308700FF30C03FD9
:1010E000FF30C13F0800F70077088831C6208831FB
:1010F000F5007508F6008B1F8D288B137635B03EF2
:10110000860087017708063E840001308500403F55
:10111000803F413F813F8B1708007635B03E860007
:1011200087017708063E840001308500403F803FFC
:10113000413F813F0800F9007208F8007108F7008C
:101140007908F5007508FA000130F3020030F43B2D
:10115000730A0319740A03190800770884007808D1
:1011600085000008F5007508F6000130F70700302B
:10117000F83D7608F5007A0886000130870075088A
:1011800081000130F5007508FA07A428F300F40186
:101190007408F100F201F135F20D58307107840046
:1011A0009830723D850000087306031DD928003071
:1011B00008007408F100F201F135F20D59307107A1
:1011C00084009830723D850000087306031DEA28EC
:1011D000013008000130F1007108F4070230740298
:1011E0000318D728C828F900790A8600013087003B
:1011F000010897312927883175082000A00076085A
:10120000A100A201A3017908053E860001308700F4
:101210002008C03F2108C13F2208C23F2308C33F26
:101220007908053E86000130870004308135413160
:10123000810D4131810D4131810D7D31890B16299F
:101240000800210091127F30F1000930F200953141
:101250002B258931083023009F0090309D002430D9
:101260009E0040309B0003309C00E130F1001430C0
:10127000F20095311F258931F730F1001430F2006A
:10128000953125258931E530F1001430F200953192
:1012900019252100CD01FC01CF01CE0191160800D6
:1012A0002000E3005F08E5005E08E4002100B401CF
:1012B000B501200064088400650885001200031948
:1012C00076296430E1006108CE006008E20062081F
:1012D000CF00630886317226893120004E08210034
:1012E000B40720004F082100B53D592921003508D9
:1012F0002000DF00210034082000DE0008007C0808
:10130000A03E86008701810123001D1D92297C08D3
:10131000A03E860087018114210067088A006608C4
:101320000A00893123009D1CA0297C08A03E86006C
:1013300087010115210065088A0064080A008931C7
:101340007C08A03E8600870101080319AE29210010
:1013500063088A0062080A00893108009631FB267A
:1013600008007508031D7508031DBA297308953117
:10137000082508007508033E860087011600010451
:101380000319DD297508033E86008701403FF600FA
:10139000413FF700750A86008701403FF800413F52
:1013A000F9007908803AFA007708803A7A02031D3A
:1013B000DB297608780203180800750A8600870181
:1013C0000130810741310318810A0800F9007908CA
:1013D000F7000330F735FF3E031DEA297735203E3D
:1013E000F8007808FA007A08023E8600013087008B
:1013F00081017A08053E8600013087000030C03F39
:101400000030C13FC23FC33F7A080A3E8600013028
:1014100087000030C03FC13F7A080C3E8600013093
:1014200087000030C03FC13F7A0A86000130870044
:1014300001089631432608002000B30033088831A4
:10144000C6208A31F80078082000B00033089631B1
:1014500021268A31003A0319472A20003308063E24
:101460008600013087003035B03E84008501403F62
:101470000002F4000131413F003BF5009731122793
:101480008A3175082000B2007408B1004A2A200091
:10149000B101B20100303202653003193102031C80
:1014A000552A3308953149250800330895315125CF
:1014B0000800FB007B08023E86000130870001081F
:1014C0000319952A7B08033E860001308700403FC0
:1014D000F900413FFA00FA36F90CFA36F90C7B08AC
:1014E000033E8600013087007908810241317A0885
:1014F000813B7F317B0A86000130870001089731EC
:1015000029277508F9007608FA00FA36F90CFA3638
:10151000F90C7B08033E86000130870079088107BB
:1015200041317A08813D7F3108007B0A8600013015
:1015300087000108973129277B08033E8600013088
:1015400087007508C03F7608C13F08002000AF0043
:1015500021003A1CB42A20002F08AA002A08FB0008
:101560002708883126208A312000A91BBC2A290897
:10157000AE002808AD00BE2AAD01AE01AB01AC0142
:101580002C08803AAA002E08803A2A02031DCA2A93
:101590002D082B020318DE2A2030F3000030F4005F
:1015A00020002F08AA002A08F5008931B1218A31CC
:1015B00001302000AB070030AC3DC02A21003A18B2
:1015C000EA2A20002F08AA002A08FB0027088831F1
:1015D00026208A31200027089731412720002D0836
:1015E0007107A7002E08723DA80008002000AB007C
:1015F0002B08A9000330A935FF3E031DFB2A29351E
:10160000203EAA002A08AC002C0A86000130870080
:1016100001089531D2258A31003A031908002000CB
:101620002C0A86000130870001089631B9268A31DC
:10163000003A0319080020002C089531A8258A31AA
:1016400020002C088C3171248A3120002C08023EA5
:1016500086000130870003300102031C372B2C0861
:1016600086000130870001088931E6218A31200097
:101670002C08A9002908A4002C08023E860001308D
:1016800087000135D33E86008701413F8A00403FF5
:101690000A008B3108002000D1000530CF004F0830
:1016A000D0005108031D612B4E08031D612BFF3034
:1016B000080001302000D0025008031D612BFC30CF
:1016C00008004E08CF004F08B20051088031532067
:1016D0008B31003A031D592B200051080319742B3C
:1016E00051088A311C228B3120004E0803197C2BB3
:1016F0004E088A311C228B31200051089531C425B7
:101700008B31003A03198C2B2000510895317A2532
:101710008B31003A031D9C2B20004E089531C425C7
:101720008B31003A0319A52B20004E0895317A25FC
:101730008B31003A0319A52B20004E08CF004F082B
:10174000C10051088F315A270800003008002000DE
:1017500024080A3E860001308700403FA500413F33
:10176000A600003026020930031925020318BD2BFC
:1017700024088831F3208B31C12B24088C31F824C4
:101780008B31200024080A3E86000130870001309A
:10179000810741310318810A24080A3E860001307E
:1017A0008700403FA500413FA600003026021030D0
:1017B00003192502031C08002408053E8600013099
:1017C0008700403FA500413FA600423FA700433F9E
:1017D000A8000430A836A70CA60CA50C890BEA2B90
:1017E0002408033E8600013087002508C03F2608F4
:1017F000C13F2408023E8600013087008101810A32
:1018000024080A3E8600013087000030C03FC13FF7
:101810000800200024080A3E860001308700403F6F
:10182000A500413FA60007302602D030031925024B
:10183000031C322C240886000130870001088931FE
:10184000E6218C3120002408860001308700010841
:10185000A5002508F80021005A088A0059080A0046
:101860008C3108002408093E8600013087000108F9
:10187000803AA50024080E3E860001308700240827
:101880000E3E84000130850000360102803AA50238
:10189000031808002408023E8600013087008101F9
:1018A000810A24080A3E8600013087000030C03FCC
:1018B000C13F24080C3E860001308700FF30C03F46
:1018C000FB30C13F24088600013087000108A500D5
:1018D0002508F80021005A088A0059080A008C31AE
:1018E00008002000A0002008053E86000130870087
:1018F000403FF100413FF200423FF300433FF4001C
:101900000430F436F30CF20CF10C890B812C200816
:10191000033E860001308700403FF500413FF6005E
:101920007508F7007608F800F901FA017108F70266
:101930007208F83B7308F93B7408FA3B7A08A40074
:101940007908A3007808A2007708A1002108F10017
:101950002208F2002308F3002408F40020080F3EB8
:10196000860001308700010AB92CF437F30CF20C21
:10197000F10C890BB52C7408A4007308A30072083D
:10198000A2007108A100A41BDA2C2408031DD22C8C
:101990002308031DD22C2208031DD22C80302102E3
:1019A000031CDA2C0030A4000030A3000030A20099
:1019B0007F30A100A41FEE2C80302102FF30223B9B
:1019C000FF30233BFF30243B0318EE2CFF30A400F4
:1019D000FF30A300FF30A2008030A1002108F100F9
:1019E0002008093E86000130870071088100080048
:1019F000F7008B1F422D8B137708053E86000130C0
:101A00008700403FF100413FF200423FF300433F77
:101A1000F4000430F436F30CF20CF10C890B0A2DAF
:101A20007708053E86000130870071088102413148
:101A30007208813B41317308813B41317408813B1D
:101A40007D317708033E860001308700403FF1007A
:101A5000413FF2007108F3007208F400F501F6014D
:101A60007708053E86000130870073088107413101
:101A70007408813D41317508813D41317608813DD1
:101A80008B1708007708053E860001308700403F2D
:101A9000F100413FF200423FF300433FF4000430C5
:101AA000F436F30CF20CF10C890B502D7708053E3F
:101AB0008600013087007108810241317208813B44
:101AC00041317308813B41317408813B7D31770896
:101AD000033E860001308700403FF100413FF200A5
:101AE0007108F3007208F400F501F6017708053E6D
:101AF0008600013087007308810741317408813DF9
:101B000041317508813D41317608813D0800200052
:101B1000D5005508D200D301D235D30D5830520725
:101B200084009830533D85000008D4005408D70045
:101B30005508D200D301D235D30D59305207840055
:101B40009830533D85000008D4005408D800580848
:101B5000D2005208CE0057088B314B238D31200024
:101B6000D3005308D600F82D5708963121268D3121
:101B7000003A0319D52D21005108031DC42D200062
:101B80005708883173208D31200057089531592529
:101B90008D31200057088600013087000108D200EF
:101BA0005208F1009431E4248D3120005808963118
:101BB00021268D31003A03191B2E21005108031DE7
:101BC000E62D20005808883173208D3120005808F8
:101BD000953159258D312000580886000130870045
:101BE0000108D2005208F1009431E4248D311B2EFB
:101BF0005608D200D301D21BD3035308003A03196D
:101C0000052EFF3A03190A2E1B2E5208003A03191B
:101C1000B42D1B2E5208FB3A03191B2E073A031949
:101C20001B2E013A03191B2E033A03191B2E013AEE
:101C300003191B2E1B2E2000560808002000B1009F
:101C400031088831C6208E31F80078082000B000B5
:101C50003108953171258E31003A031D622E200026
:101C60003035B03E86008701403FF800413FF90023
:101C70003108043E8600013087000108FA00FB01AC
:101C80000930FA35FB0D890B412E79087B02031DC3
:101C90004B2E78087A0203185E2E0130F8003108C6
:101CA000053E860001308700780881070F30010269
:101CB000031C080031089531E125080031089531F1
:101CC000E125080020003108043E8600013087002D
:101CD0000108F800F901F835F90D3108063E8600D3
:101CE000013087003035B03E84008501403F00025E
:101CF000F4000131413F003BF500973112278E314E
:101D000079087502031D862E780874020318962E32
:101D10002030F80020003108023E860001308700A4
:101D20007808810031089531B62508000230F800A6
:101D300020003108033E86000130870078088107C3
:101D40003108033E86000130870020300102031C69
:101D500008002030F8003108023E8600013087007C
:101D60007808810031089531B62508002000240844
:101D7000093E8600013087000108803AA50024084A
:101D80000E3E8600013087000103FF3A803AA5022B
:101D90000318F52E24080A3E860001308700013022
:101DA000810741310318810A24080A3E8600013068
:101DB0008700403FA500413FA60000302602413089
:101DC00003192502031C372F24080A3E8600013020
:101DD00087000030C03FC13F2408860001308700E3
:101DE00001088931E6218E31372F2408093E86000B
:101DF000013087000108A500A601A51BA603240841
:101E00000E3E8600013087002608803A803C031D84
:101E10000B2F2508010203182E2F02302000A500E9
:101E20002408023E8600013087002508810024082E
:101E30000A3E8600013087000030C03FC13F2408C1
:101E40008600013087000108A5002508F800210060
:101E50005C088A005B080A008F31372F20002408B5
:101E60000A3E8600013087000030C03FC13F20009D
:101E700024080C3E86000130870001308107413183
:101E80000318810A24080C3E8600013087001600E2
:101E9000403AA5001600A504031D080024080C3EC6
:101EA0008600013087000030C03FC13F24088C31DC
:101EB000F82408002000C400210045082000C300C9
:101EC000210044082000C200C336C20CC336C20C35
:101ED0002100440820004207C500210045082000D9
:101EE000433DC60021005F082000C2004208C70031
:101EF000210031082000CA00210030082000C9005C
:101F0000210033082000CC00210032082000CB0043
:101F1000CD014D08533E840098300318013E8500E2
:101F20000008C20042082100DF07AE305F0203183C
:101F30009F2FAE302000C20042082100DF0705308D
:101F40002000C2004208C8004108C2004208B20096
:101F50004408803153208F31003A0319B72F0130E4
:101F60002000C8024808031DA42FFC3008002100EF
:101F7000450820004602031DC12F2100440820000F
:101F800045020318E12F210045082000C60021006A
:101F900044082000C50021005F082000C20042085C
:101FA000C700210031082000CA00210030082000AD
:101FB000C900210033082000CC0021003208200095
:101FC000CB000130C2004208CD0705304D02031C92
:101FD000892F4708C20042082100DF0020004A087C
:101FE0002100B100200049082100B00020004C0869
:101FF0002100B30020004B082100B200003008008F
:10200000003402340034003400340034003400342E
:1020100000340034003400340034003464340134BB
:10202000013400340034003400340034003400340F
:10203000003400340034003400340034643401349B
:1020400002340134003400340034003400340034ED
:10205000003400340034003400340034643401347B
:1029C20008000800080008009631FB2608002100D4
:1029D200CB01080088310820080020001C150800DF
:1029E20020001C1108009631E526080023001D1264
:1029F2001D1608008B1096317A2608001930210026
:102A020097000800F100710820009B000800F20006
:102A1200720888310020080072082100DA0071086B
:102A2200D900080072082100DC007108DB000800F0
:102A320072082100E3007108E20008007208210018
:102A4200E7007108E600080072082100E50071083D
:102A5200E400080072082100E9007108E80008009B
:102A620072082100E1007108E0000800F030210046
:102A72009900220096010800640080010131890B4F
:102A82003E2D0034FE0012001E00FE0B442D0034C9
:102A9200F1007108083E86000130870081140800A9
:102AA200F1007108083E860001308700811008009D
:102AB200F1007108083E8600013087000114080009
:102AC200F1007108083E86000130870001100800FD
:102AD200FF3020009B009A01911004309C000800F6
:102AE200F1007108083E860001308700010E0139AD
:102AF2000800F1007108083E860001308700010CD1
:102B0200890C013908008B1021001513E230F10005
:102B12001430F200953131250B1608008731F22767
:102B220095319731A927953196316726953196319E
:102B320000260800A7340B34B6340E3409340C34A2
:102B4200E3341434E3341434E4341434AE34200063
:102B5200A0008B1FB22D8B1320088A3159228B17AC
:102B6200080020088A3159220800F1007108083E45
:102B720086000130870001157108083E8600013089
:102B8200870001120800F1007108031DCA2D0030F0
:102B920008007108083E860001308700010C0139E7
:102BA2000800F6000930F5007508F1007608963144
:102BB2001026583E860001308700010801390800BE
:102BC200F1007108083E8600013087000116710885
:102BD200033E8600013087008101810A080020003F
:102BE200AE012E088A31F622953101302000AD0067
:102BF2002D08AE0703302E0203180800F22DFC3018
:102C020020009C052E0091012F00910190302E0092
:102C120092004030940040302F0094000800F400ED
:102C2200F301741C182E7108F2007208F3070310E6
:102C3200F10D0310F40C7408031D122E7308080022
:102C4200F20072080319302E7208083E8600013025
:102C52008700010CF100F10C710C01390800003001
:102C6200080068302000EC006C08EF006708DF0005
:102C72006608DE006F30EC006C08E000003089313D
:102C820050210800F60003307602031808000930CC
:102C9200F5007508F100760896311026583E860038
:102CA2000130870001110800F60003307602031894
:102CB20008000930F5007508F100760896311026F3
:102CC200583E860001308700811508005030F2001E
:102CD2007208F3006230F20073087202031C0800EB
:102CE20073089531612596310930F2007208F307B5
:102CF2006B2E21003E080F39F0003C087006F039B7
:102D02007006BC00C701C70A600861040319080005
:102D120061088A0060080A0096310800F800780805
:102D220096315526963178089631432696310930E8
:102D3200F7007708F1007808963110269631503E58
:102D420095316125080097315927963195313725FC
:102D520096319431FF24963195316925963195311A
:102D62008425963189312121963195318F250800AC
:102D7200F600033076020318CD2E0930F5007508EF
:102D8200F100760896311026583E86000130870001
:102D9200010C890C01390800003008002000DA011A
:102DA2005A088D3187259631003A0319DA2E003000
:102DB200080001302000D9005908DA0702305A020F
:102DC200031CD12E01300800F5017508F400033010
:102DD200F435FF3E031DE92E7435203E88314C2028
:102DE20096310130F4007408F507033075020318B8
:102DF2000800E62E23001908F0007C08A83E860091
:102E02008701700881000130F0007008FC0708306B
:102E12007C020318FC010130F00070082100CE078B
:102E220008007508803AF60080307602031D1B2FD9
:102E320001307402031808007409F6007509F700DE
:102E4200F60A0319F70A7608F4007708F500080075
:102E5200F8000330780203183E2F0930F700770894
:102E6200F100780896311026563E86000130870020
:102E7200403FF500413FF6000800F501F601080069
:102E8200F5007508F3007308F40075088600013038
:102E9200870001080319522F0130F3007308F50768
:102EA200462F74087502F100F201F11BF2030800CB
:102EB20022008C018D018E013F3021008C00603098
:102EC2008D0053308E00FF3023008E0050308D0075
:102ED20033308C0024008D018C01210095172200D3
:102EE2009D010800F2000330720203188C2F720851
:102EF200F1000330F135FF3E031D7B2F7135223E79
:102F020086000130870002300106031D8A2F01303E
:102F12000800003008000030080000346934303402
:102F2200103420340034003400340034013431349D
:102F3200303410342034003400340034003402348D
:102F4200613430341034203400340034003400341E
:102F52000030F1009030F2003030F3000030F40025
:102F6200203088319B2097312000A0012008893130
:102F7200E62197310130FB007B082000A0070330D7
:102F8200200203180800B72F2100D201D20A96317D
:102F9200CF269731003A031DD02F0030080095311B
:102FA200F02597318031022097312000DB005B0849
:102FB2002100D2009631672697319431F4240130F2
:102FC2000800F501F6017608973173279731013A27
:102FD200031DF62F0130F300760AF02FF335890B2B
:102FE200EF2F7308F4007408F5040130F30073083E
:102FF200F60703307602031CE42F750808006C34D0
:103002006134733474346C346534763465346C34BE
:103012002D342D34253464347C347C347C346C344B
:103022006534763465346C342D342D34253464346F
:103032000D340A3400342D342D342D342D342D34F6
:103042002D34253464342D342D342D342D342D3447
:103052002D342D342D342D340D340A3400342D34D6
:103062002D342D342D344F34463446342D342D3402
:103072002D342D340D340A3400342D342D342D34B6
:103082002D344F344E342D342D342D342D340D3413
:103092000A340034523445345334453454340D34F4
:1030A2000A34003400340D341C341E3417345934BD
:0630B200503400346234CA
:020000040001F9
:04000E00E4FDFFF519
:00000001FF
