:020000040000FA
:1000000080313128003008007E1480318B1A0B1D9E
:100010000D2892310D2280312F280B1A8B1C1428A9
:100020009131DC2180312F280B1F2F282100111E38
:1000300023282000111E2328220055088A00540876
:100040000A0080312F282100911E2F282000911EA8
:100050002F28220053088A0052080A0080317E109F
:100060000900803133280630840092308500E53065
:1000700086000030870007309231002280318630C0
:1000800084009330850038308600013087001230BC
:10009000923100228031DC30840094308500D030F1
:1000A0008600013087001B30923100228031E6014A
:1000B000E701E801E901EA01C5308400003085006C
:1000C00020309131FA2180312030840001308500C8
:1000D00018309131FA218031A03084000130850040
:1000E00030309131FA218031203084000230850097
:1000F00020309131FA217E1020009531862D20008C
:10010000D000CB01CC01CD01CE01CA01C701C8018D
:1001100050080319C52842080319C5285008083E8D
:100120008600013087008119A5284208083E860014
:1001300001308700811DA5285008083E8600013047
:1001400087008115C701C70ADA284208083E8600E1
:10015000013087008119BC285008083E8600013014
:100160008700811DBC284208083E860001308700B8
:100170008115C801C80ADA285008083E86000130F7
:1001800087008119DA284208D2285008031DCB289D
:100190004208031DC32850080319DA284208031D2A
:1001A000DA285008083E8600013087008119DA28D5
:1001B0000030080042089231F2228031003A0319DF
:1001C000E4282000CA01CA0A2E0012082000C30039
:1001D0004308C4002E0013082000C3004308C500D4
:1001E0002F0013082000C3004308C60093312123C9
:1001F000803120005008031910295008043E860061
:10020000013087000108FF3EC3004308CF00C90149
:1002100040302E0098002F00980122001D14232941
:100220004208043E8600013087000108FF3EC300FB
:100230004308CF00C901C90A2E00980140302F00A1
:10024000980022001D102000A60150088631EE26DD
:1002500080312000A601A60A42088631EE268031B0
:10026000200068106811E81121006B089131E92124
:1002700080319131CF2180312100DB01DC01200070
:100280004908031D4929111FE810111F45291113A1
:100290004F29121B4C29E810121F4C291213213030
:1002A000C30043082E00980621302000C3004308F5
:1002B0002F009806C0302000C30043082E0094068B
:1002C000C0302000C30043082F00940620004F18C0
:1002D000B6292E001A082100CD072E001B08210088
:1002E000CE3D2F001A082100CF072F001B08210048
:1002F000D03D20004A08031D98292E001A0820002E
:100300004D02B8002E001B0820004E3BB90094316E
:1003100075248031200038082100DB0720003908CF
:100320002100DC3D2E001B082000CE002E00B2294B
:100330002F001A0820004D02B8002F001B082000D3
:100340004E3BB900943175248031200038082100DB
:10035000DB07200039082100DC3D2F001B082000AE
:10036000CE002F001A082000CD00EE292E001A081A
:100370002100CD022E001B082100CE3B2F001A08C1
:100380002100CF022F001B082100D03B20004A088B
:10039000031DD1292E001A0820004B02B8002E00A0
:1003A000D7292F001A0820004B02B8002F001B0885
:1003B00020004C3BB900943175248031200038086E
:1003C0002100DB07200039082100DC3D2E001B083E
:1003D0002000CC002E001A082000CB004F08031983
:1003E00068140130CF02E81CF72968156814E81476
:1003F000681C3F299131D2218031200044082E0011
:100400009200200045082E009300200046082F008F
:1004100093002000681D0E2AFB300800E81D122AF8
:10042000FA300800470803191B2A5008083E8600C6
:1004300001308700811148080319242A4208083E28
:100440008600013087008111500893317423803178
:10045000003A0319382A200050089231B222803124
:10046000003A031D382A200050088E31232680319F
:1004700020004208933174238031003A03194D2A39
:10048000200042089231B2228031003A031D4D2AE9
:10049000200042088E31232680312E0096012F0045
:1004A00096012E0097012F0097012E0011102F00AA
:1004B0001110D8282100A80020005F0886008701BD
:1004C000403FE100413FE20061088400620885008E
:1004D0001200253A031DA22B5F0886008701013018
:1004E000810741310318810A2100D301D401D701CA
:1004F000D801FF30D500FF30D60020005F0886000D
:100500008701403FE100413FE2006108840062084A
:1005100085001200643A03199C2A5F08860087014F
:10052000403FE100413FE20061088400620885002D
:100530001200693A031DE92A5F088600870101302D
:10054000810741310318810A60088600870101088C
:100550008400850102308107003FE100013FE20095
:1005600061082100A000200062082100A100890D7F
:10057000893B8909A200A300A400A500A600A7004A
:1005800020082000C100210021082000C200210015
:1005900022082000C300210023082000C4002100FD
:1005A00024082000C500210025082000C6002100E5
:1005B00026082000C700210027082000C8002100CD
:1005C00028088331C72320004208E0004108DF00EB
:1005D00008005F0886008701403FA500413FA60054
:1005E0006E30A7009830A8000230A9000030AA00A1
:1005F0008A312F2282312000250826040319172B67
:100600005F0886008701403FA500413FA60071308A
:10061000A7009830A8000230A9000030AA008A3153
:100620002F228231200025082604031D6E2B5F082F
:10063000860087010230810741310318810A600872
:100640008600870101088400850104308107003F8E
:10065000E100013FE200023FE300033FE4006108E4
:100660002100A000200062082100A10020006308F2
:100670002100A200200064082100A3000030A31B79
:10068000FF30A400A500A600A70020082000C1009C
:10069000210021082000C200210022082000C30000
:1006A000210023082000C400210024082000C500E8
:1006B000210025082000C600210026082000C700D0
:1006C000210027082000C800210028088331C72303
:1006D00020004208E0004108DF0008005F088600B3
:1006E0008701403FE100413FE20061088400620869
:1006F00085001200253A031D972B5F0886008701AD
:100700000130810741310318810A2530A8000030EB
:10071000A900210028082000E1006108AA00883112
:10072000082001302000DF000030E00008005F08F2
:10073000860087010130810741310318810ADF01FA
:10074000E00108005F0886008701403FE100413F6B
:10075000E20061088400620885000008E300E4010B
:100760006308A8006408A900210028082000E5000B
:100770006508AA0088310820823120005F088600C1
:1007800087010130810741310318810A912B200034
:10079000D0004108D5004208D6004308D7004408DD
:1007A000D8004508D9004608DA004708DB004808A9
:1007B000DC005530860000308700473FC900C91F64
:1007C000E32B0130E42B00302000CA00CB014A08A3
:1007D000D3004B08D4005308540403190D2CD50939
:1007E000D609D709D809D909DA09DB09DC09D50AFC
:1007F000031D0D2CD60A031D0D2CD70A031D0D2C2D
:10080000D80A031D0D2CD90A031D0D2CDA0A031D6D
:100810000D2CDB0A031D0D2CDC0A2100D61B142C29
:10082000FD30D705FF30D8055608803A2000C900B2
:1008300080304902031D1F2C01302100550203188E
:10084000272C01302000CE000030CF002F2C2100BB
:1008500056082000CF00210055082000CE002100BE
:1008600054082000D200210053082000D100530872
:100870005404031D3E2C2100571D432CFF30200043
:10088000D107FF30D23D1F302000DD000030DE00F8
:100890002400BF01D92C20005508560457045804E1
:1008A00059045A045B045C04031D702C4F08803A01
:1008B000C90080304902031D5F2C01304E0203182D
:1008C000702C20005208803AC90080304902031D74
:1008D0006B2C01305102031CE52C2100D71CE52CA8
:1008E000FF302000DD07FF30DE3D0A30A500A60105
:1008F000A701A801A901AA01AB01AC015508AD00EF
:100900005608AE005708AF005808B0005908B100AB
:100910005A08B2005B08B3005C08B40086310F26A9
:10092000833120002608B9002508B80094317524C9
:10093000833120003808303EC9005D08203E860023
:100940000230870049088100FF30CE07FF30CF3DDD
:10095000FF30D107FF30D23D0A30A500A601A70124
:10096000A801A901AA01AB01AC015508AD005608C8
:10097000AE005708AF005808B0005908B1005A0837
:10098000B2005B08B3005C08B400853118258331E0
:1009900020002508D5002608D6002708D7002808FB
:1009A000D8002908D9002A08DA002B08DB002C0817
:1009B000DC0020005E08803AC90080304902031D37
:1009C000E32C01305D0203184B2C20005308540423
:1009D000031DED2C2100571D052DFF302000DD07E4
:1009E000FF30DE3D53085404031DF82C2B30F92C46
:1009F0002D30CC000030CD004C08C9005D08203EF1
:100A00008600023087004908810020005D08203EF2
:100A1000C9004908B8005208BA005108B900500886
:100A200089318D2120003908C2003808C100080032
:100A30002000B7012530860000308700473FB50011
:100A4000B51F442D2000A509A609A709A809A909D1
:100A5000AA09AB09AC09A50A031D412DA60A031D6D
:100A6000412DA70A031D412DA80A031D412DA90AE6
:100A7000031D412DAA0A031D412DAB0A031D412D63
:100A8000AC0A2000B701B70A2D308600003087007D
:100A9000473F2000B500B51F712D2000AD09AE09FC
:100AA000AF09B009B109B209B309B409AD0A031D10
:100AB0006C2DAE0A031D6C2DAF0A031D6C2DB00A00
:100AC000031D6C2DB10A031D6C2DB20A031D6C2D84
:100AD000B30A031D6C2DB40A01302000B50035089F
:100AE000B706383086000030870008302000B50097
:100AF00000301E00B50B792D250826042704280494
:100B000029042A042B042C040319DC2DB601B60A8F
:100B1000AC1B972DA535A60DA70DA80DA90DAA0DE7
:100B2000AB0DAC0D0130B5003508B607882DB835D2
:100B3000B90DBA0DBB0DBC0DBD0DBE0DBF0D2C0802
:100B40003402031DBD2D2B083302031DBD2D2A08C1
:100B50003202031DBD2D29083102031DBD2D2808B9
:100B60003002031DBD2D27082F02031DBD2D2608B1
:100B70002E02031DBD2D25082D02031CD02D250896
:100B8000AD022608AE3B2708AF3B2808B03B29083A
:100B9000B13B2A08B23B2B08B33B2C08B43B3814BA
:100BA000AC36AB0CAA0CA90CA80CA70CA60CA50C77
:100BB0000130B602031D972D37080319FD2DB80922
:100BC000B909BA09BB09BC09BD09BE09BF09B80A00
:100BD000031DFD2DB90A031DFD2DBA0A031DFD2DB0
:100BE000BB0A031DFD2DBC0A031DFD2DBD0A031DFF
:100BF000FD2DBE0A031DFD2DBF0A20003808A500EB
:100C00003908A6003A08A7003B08A8003C08A9003C
:100C10003D08AA003E08AB003F08AC0008002000D9
:100C2000B7012D30860000308700473FB500B51F63
:100C30003B2E2000AD09AE09AF09B009B109B209D8
:100C4000B309B409AD0A031D382EAE0A031D382EB0
:100C5000AF0A031D382EB00A031D382EB10A031D3A
:100C6000382EB20A031D382EB30A031D382EB40ADB
:100C70002000B701B70A2530860000308700473FC3
:100C80002000B500B51F632E2000A509A609A709FD
:100C9000A809A909AA09AB09AC09A50A031D632E75
:100CA000A60A031D632EA70A031D632EA80A031DAF
:100CB000632EA90A031D632EAA0A031D632EAB0A25
:100CC000031D632EAC0A20002508260427042804EF
:100CD00029042A042B042C040319BB2EB601B60ADE
:100CE000AC1B7F2EA535A60DA70DA80DA90DAA0D2D
:100CF000AB0DAC0D0130B5003508B607702E2C08D1
:100D00003402031D9D2E2B083302031D9D2E2A083D
:100D10003202031D9D2E29083102031D9D2E280835
:100D20003002031D9D2E27082F02031D9D2E26082D
:100D30002E02031D9D2E25082D02031CAF2E250813
:100D4000AD022608AE3B2708AF3B2808B03B290878
:100D5000B13B2A08B23B2B08B33B2C08B43BAC3662
:100D6000AB0CAA0CA90CA80CA70CA60CA50C013066
:100D7000B602031D7F2E37080319DC2EAD09AE091C
:100D8000AF09B009B109B209B309B409AD0A031D2D
:100D9000DC2EAE0A031DDC2EAF0A031DDC2EB00ACA
:100DA000031DDC2EB10A031DDC2EB20A031DDC2E4E
:100DB000B30A031DDC2EB40A20002D08A5002E085E
:100DC000A6002F08A7003008A8003108A9003208A3
:100DD000AA003308AB003408AC0008002000AD00C6
:100DE0002D08031908002608031DF92EAA01AB01DE
:100DF000FD2E8030AA000030AB002A08A70027088B
:100E0000AC002D0A8600013087000108A7002C08DD
:100E1000113EA800A9010730A93D2808860029082D
:100E20008700270881002D08053E860001308700D5
:100E30000108A7002C08193EA800A9010730A93D08
:100E40002808860029088700270881002C08133EFF
:100E5000A700A8010730A83D2708860028088700BA
:100E600050308100FE30A7002C08183E8600870114
:100E70000730873D270881052D089231B22286313F
:100E8000003A0319582F20002D08023E8600013039
:100E900087000108A7002C08163EA800A90107300A
:100EA000A93D2808860029088700270881006D2FA2
:100EB00020002C08163EA700A8010730A83D2708EF
:100EC000860028088700203081002D089231922268
:100ED0008631003A0319802F20002D08033E86003A
:100EE000013087000108A7002C08173EA800A901BF
:100EF0000730A93D280886002908870027088C2F7D
:100F000020002C08173EA700A8010730A83D27089D
:100F1000860028088700203081002D08043E8600C6
:100F2000013087000108A700A8010930A735A80DE6
:100F3000890B962F2635CD3E860087012708C03FB6
:100F40002808C13F08002000E1000530DF005F08ED
:100F5000E0006108031DB92F5E08031DB92FFF30A3
:100F6000080001302000E0026008031DB92FFC30AA
:100F700008005E08DF005F08C200610880317F2042
:100F80008731003A031DB12F200061080319CC2FCF
:100F9000610888317920873120005E080319D42F39
:100FA0005E08883179208731200061089231F22271
:100FB0008731003A0319E42F200061089231B222F0
:100FC0008731003A031DF42F20005E089231F2228F
:100FD0008731003A0319FD2F20005E089231B222BA
:100FE0008731003A0319FD2F20005E08DF005F08FB
:100FF000D10061088F315A2708000030080008002E
:101000006B302000A5001730A6009231892208001D
:1010100020002A08031D2A08031D122828089131E0
:10102000EE2108002A08033E86008701160001040D
:10103000031935282A08033E86008701403FAB008C
:10104000413FAC002A0A86008701403FAD00413F86
:10105000AE002E08803AAF002C08803A2F02031D04
:1010600033282B082D020318080020002A0A8600C6
:1010700087010130810741310318810A08002000EF
:101080006708203E860001308700810123001D1D76
:10109000562820006708203E860001308700811412
:1010A000220051088A0050080A00883123009D1C44
:1010B000662820006708203E860001308700011561
:1010C00022004F088A004E080A0088312000670875
:1010D000203E86000130870001080319762822008F
:1010E0004D088A004C080A008831080094315C24BD
:1010F00008002000C000400897313D2788312000BB
:10110000BC003C08BD004008933174238831003A8C
:101110000319A42820004008063E860001308700FD
:101120003D35CD3E84008501403F0002B8000131CD
:10113000413F003BB90094317524883120003908C3
:10114000BF003808BE00A7282000BE01BF01003044
:101150003F02653003193E02031CB2284008923159
:101160002F220800400892313822080021003B035A
:10117000031DC4280310D91C0314031CC22821001A
:10118000D914C4282100D910D91CEC2822008C10B5
:101190005B302100B1009830B20093315123883187
:1011A0009531A5258831013A031DDE2860302100E4
:1011B000B1009830B2009331512308009531A52534
:1011C0008831043A031D080043302100B1009830F3
:1011D000B20093315123080022008C1450302100BA
:1011E000B1009830B20093315123080021009112D0
:1011F0003F302000A5000830A60092316E228831D1
:10120000210011122F302000A5001530A6009231C8
:10121000772288310A3023009F0090309D002430CF
:101220009E0040309B0003309C00C8302000A50089
:101230001130A60092315C228831D8302000A50000
:101240001130A600923165228831CC302000A500F3
:101250001130A600923153222100DE01E101E001AC
:1012600008302000A70027082100EF002000E70138
:10127000E6012100DF01911608002000AF002F08D1
:10128000023E860001308700010803197B292F08E0
:10129000033E860001308700403FAD00413FAE0075
:1012A000AE36AD0CAE36AD0C2F08033E86000130D5
:1012B00087002D08810241312E08813B7F312F0AA2
:1012C00086000130870001089431A72420002908F6
:1012D000AD002A08AE00AE36AD0CAE36AD0C2F0810
:1012E000033E8600013087002D08810741312E081A
:1012F000813D7F3108002F0A8600013087000108F8
:101300009431A72420002F08033E86000130870077
:101310002908C03F2A08C13F08002000C000210062
:10132000571C9B2920004008BB003B08B000380830
:101330009531E92589312000BA1BA3293A08BF005D
:101340003908BE00A529BE01BF01BC01BD013D0891
:10135000803ABB003F08803A3B02031DB1293E089A
:101360003C020318C52920302000A8000030A90045
:101370004008BB003B08AA008831082089310130B1
:101380002000BC070030BD3DA72921005718D129F6
:1013900020004008BB003B08B00038089531E92523
:1013A00089312000380894318E2420003E0825071A
:1013B000B8003F08263DB900080021003E080A3E5B
:1013C000860001308700403FBF00413FC00003302E
:1013D0004002E83003193F02031C052A3E0886003C
:1013E0000130870001089731C927893121003E0863
:1013F0008600013087000108BF003F08BB00660877
:101400008A0065080A008A3108003E08093E860005
:10141000013087000108803ABF003E080E3E86007A
:10142000013087003E080E3E840001308500003602
:101430000102803ABF02031808000430BF003E08D2
:10144000023E8600013087003F0881003E080A3EC8
:101450008600013087000030C03FC13F08002000F7
:101460002608AD002508AC002808AF002708AE000C
:101470000130A9020030AA3B290A031D6A2A2A0A60
:10148000031D6A2AA501A60108002E0884002F0862
:10149000850012000319712A29082A040319712AE8
:1014A0002E0884002F0885000008AB002C0884005B
:1014B0002D08850000082B06031D712A0130AC079A
:1014C0000030AD3D0130AE070030AF3D0130A90224
:1014D0000030AA3B2C0884002D0885001200031D53
:1014E000452A2C0884002D0885000008AB002E0832
:1014F00084002F08850000082B02A500A601031C0C
:10150000A60308002200D60056082100C3000330BD
:10151000C335FF3E031D882A4335A03EC40044085E
:101520002200D700570A8600013087000108933156
:1015300001238A31003A031908002200570A860065
:101540000130870001089331E7238A31003A0319FB
:101550000800220057089231D5228A31220057080C
:101560008C3176248A3122005708023E86000130F1
:10157000870005300102031CC52A57088600013088
:10158000870001089731C9278A31220057082100B6
:10159000C3004308BE0022005708023E8600013007
:1015A00087000135383E860001308700413F8A00C0
:1015B000403F0A008A31080021003E080A3E8600AA
:1015C00001308700403FBF00413FC0000030400273
:1015D000093003193F020318F22A3E0897319A276F
:1015E0008A31F62A3E088C31FD248A3121003E08DA
:1015F0000A3E86000130870001308107413103181F
:10160000810A3E080A3E860001308700403FBF0045
:10161000413FC00000304002103003193F02031C5C
:1016200008003E08053E860001308700403FBF00AD
:10163000413FC000423FC100433FC2000430C236B8
:10164000C10CC00CBF0C890B1F2B3E08033E86004B
:10165000013087003F08C03F4008C13F3E08023EBE
:101660008600013087008101810A3E080A3E86001B
:10167000013087000030C03FC13F080021003E0814
:10168000093E8600013087000108BF00C001BF1B72
:10169000C0033E080E3E8600013087004008803AB5
:1016A000803C031D552B3F0801020318912B21009C
:1016B0003E080A3E86000130870001308107413133
:1016C0000318810A3E080A3E860001308700403F29
:1016D000BF00413FC000003040020A3003193F0202
:1016E000031C08000330BF003E08023E86000130A4
:1016F00087003F0881003E080A3E860001308700CF
:101700000030C03FC13F3E0886000130870001081D
:10171000BF003F08BB0068088A0067080A008B31D9
:10172000080021003E08023E86000130870081014A
:10173000810A3E080A3E8600013087000030C03F23
:10174000C13F08008B1220006A08031DAA2B9331A9
:10175000BE2308006A08043E860001308700403F2F
:10176000F900413FFA00423FFB00433FFC002100EB
:101770004908F9024A08FA3B4B08FB3B4C08FC3B82
:101780007C082000A3007B08A2007A08A100790849
:10179000A0002308031DD32B2208031DD32B0130E7
:1017A0002102031CFA2BFF30210049072200C6004A
:1017B000003021004A3D2200C700003021004B3D8F
:1017C0002200C800003021004C3D2200C90020004A
:1017D0006A08F90079082200C5004230F90079084A
:1017E0002000EA000030A3000030A2000030A10079
:1017F000FF30A0002308F4002208F3002108F200C3
:101800002008F1009531C6258B160130F9007908C2
:101810002100DD00080021003E08093E860001305D
:1018200087000108803ABF003E080E3E8600013066
:1018300087003E080E3E840001308500003601021C
:10184000803ABF020318642C3E080A3E860001302D
:1018500087000130810741310318810A3E080A3EA2
:10186000860001308700403FBF00413FC00000308C
:1018700040020A3003193F02031C08003E08023EE2
:101880008600013087008101810A3E080A3E8600F9
:10189000013087000030C03FC13F3E080C3E86004B
:1018A00001308700FF30C03FFB30C13F3E0886005B
:1018B000013087000108BF003F08BB0066088A00AE
:1018C00065080A008C3108000330BF003E08023E64
:1018D0008600013087003F0881003E080A3E8600EE
:1018E000013087000030C03FC13F08002000AF003A
:1018F0002F08053E860001308700403FA500413F8C
:10190000A600423FA700433FA8000430A836A70C1A
:10191000A60CA50C890B862C2F08033E86000130EF
:101920008700403FA900413FAA002908AB002A08D0
:10193000AC00AD01AE012508AB022608AC3B270880
:10194000AD3B2808AE3B2E08B3002D08B2002C0892
:10195000B1002B08B0003008A5003108A6003208FD
:10196000A7003308A8002F080F3E8600013087002B
:10197000010ABE2CA837A70CA60CA50C890BBA2C03
:101980002808B3002708B2002608B1002508B000D7
:10199000B31BDF2C3308031DD72C3208031DD72CB3
:1019A0003108031DD72C80303002031CDF2C00309F
:1019B000B3000030B2000030B1007F30B000B31F80
:1019C000F32C80303002FF30313BFF30323BFF30B0
:1019D000333B0318F32CFF30B300FF30B200FF306D
:1019E000B1008030B0003008A5002F08093E860005
:1019F000013087002508810008002000AB008B1F04
:101A0000482D8B132B08053E860001308700403F90
:101A1000A500413FA600423FA700433FA800043075
:101A2000A836A70CA60CA50C890B102D2B08053E7B
:101A30008600013087002508810241312608813B5C
:101A400041312708813B41312808813B7D312B08FA
:101A5000033E860001308700403FA500413FA600BD
:101A60002508A7002608A800A901AA012B08053E01
:101A70008600013087002708810741312808813D11
:101A800041312908813D41312A08813D8B170800E9
:101A90002B08053E860001308700403FA500413FEE
:101AA000A600423FA700433FA8000430A836A70C79
:101AB000A60CA50C890B562D2B08053E860001307F
:101AC00087002508810241312608813B41312708E2
:101AD000813B41312808813B7D312B08033E860044
:101AE00001308700403FA500413FA6002508A70020
:101AF0002608A800A901AA012B08053E860001308E
:101B000087002708810741312808813D4131290894
:101B1000813D41312A08813D080021003E08093EEF
:101B20008600013087000108803ABF003E080E3E63
:101B30008600013087000103FF3A803ABF02031894
:101B4000CC2D3E080A3E8600013087000130810717
:101B500041310318810A3E080A3E860001308700A1
:101B6000403FBF00413FC0000030400241300319F8
:101B70003F02031C002E3E080A3E8600013087000B
:101B80000030C03FC13F3E08860001308700010899
:101B90009731C9278D31002E3E08093E860001305D
:101BA00087000108BF00C001BF1BC0033E080E3EF6
:101BB0008600013087004008803A803C031DE22DFA
:101BC0003F0801020318F72D02302100BF003E0834
:101BD000023E8600013087003F0881003E080A3E31
:101BE0008600013087000030C03FC13F002E210039
:101BF0003E080A3E8600013087000030C03FC13FEA
:101C000021003E080C3E860001308700013081072C
:101C100041310318810A3E080C3E860001308700DE
:101C20001600403ABF001600BF04031D08003E081E
:101C30000C3E8600013087000030C03FC13F3E08A7
:101C40008C31FD2408002000C100410897313D2758
:101C50008E312000BC003C08C00041089231922225
:101C60008E31003A031D672E20004035CD3E8600A0
:101C70008701403FBC00413FBD004108043E860053
:101C8000013087000108BE00BF010930BE35BF0D1D
:101C9000890B462E3D083F02031D502E3C083E0294
:101CA0000318632E0130BC004108053E8600013058
:101CB00087003C0881070F300102031C080041081F
:101CC000933131230800410893313123080020006B
:101CD0004108043E8600013087000108BC00BD01B8
:101CE000BC35BD0D4108063E8600013087004035F9
:101CF000CD3E84008501403F0002B8000131413FE4
:101D0000003BB900943175248E3120003D08390222
:101D1000031D8C2E3C08380203189B2E2030BC007B
:101D20004108023E8600013087003C0881004108DE
:101D30009231E32208000230BC004108033E8600D5
:101D4000013087003C0881074108033E86000130CE
:101D5000870020300102031C08002030BC0041082D
:101D6000023E8600013087003C0881004108923124
:101D7000E32208002100A00020082000E200E30187
:101D8000E235E30D6A30620784009830633D8500D8
:101D90000008E40064082100A20020082000E200FE
:101DA000E301E235E30D6B30620784009830633D58
:101DB00085000008E40064082100A3002308200037
:101DC000E2006208DE00210022088731A3278E315D
:101DD0002000E30063082100A100332F2100220826
:101DE000933174238E31003A0319102F21006308B8
:101DF000031DFE2E2208963161268E312100220815
:101E0000923141228E312100220886000130870064
:101E100001082000E2006208A5008731FF278E310B
:101E200021002308933174238E31003A0319572F70
:101E300021006308031D202F2308963161268E316F
:101E400021002308923141228E312100230886008F
:101E50000130870001082000E2006208A5008731F8
:101E6000FF278E31572F21082000E200E301E21BFB
:101E7000E3036308003A0319412FFF3A0319462F81
:101E8000572F6208003A0319EE2E572F6208FB3ACB
:101E90000319572F073A0319572F013A0319572FE0
:101EA000033A0319572F013A0319572F572F2100CF
:101EB000210808002000D40021005C082000D30085
:101EC00021005B082000D200D336D20CD336D20CCE
:101ED00021005B0820005207D50021005C0820008B
:101EE000533DD60021006B082000D2005208D700D5
:101EF00021004E082000DA0021004D082000D90002
:101F0000210050082000DC0021004F082000DB00E9
:101F1000DD015D08563E840098300318013E8500BF
:101F20000008D20052082100EB07AE306B02031804
:101F30009F2FAE302000D20052082100EB07053061
:101F40002000D2005208D8005108D2005208C20026
:101F5000540880317F208F31003A0319B72F0130A8
:101F60002000D8025808031DA42FFC3008002100CF
:101F70005C0820005602031DC12F21005B082000D1
:101F800055020318E12F21005C082000D600210033
:101F90005B082000D50021006B082000D200520809
:101FA000D70021004E082000DA0021004D08200053
:101FB000D900210050082000DC0021004F0820003B
:101FC000DB000130D2005208DD0705305D02031C42
:101FD000892F5708D20052082100EB0020005A0830
:101FE0002100CE00200059082100CD0020005C080F
:101FF0002100D00020005B082100CF000030080045
:10239000080008000800080094315C2408002000B0
:1023A0001C15080020001C11080094312C24080082
:1023B00023001D121D1608008B1092319C2208006C
:1023C0001630210097000800F000700820009500EA
:1023D00008002000A50025089B0008002000A70099
:1023E0002708963137260800F03021009900220096
:1023F00096010800640080010131890BFB2900343B
:10240000FE0012001E00FE0B012A0034CB341134F2
:10241000CB341134FF340734AE340B1121006E0875
:10242000200095009231A7220800FF3020009B0079
:102430009A01911004309C00080020002608210019
:10244000E600200025082100E500080020002608FD
:102450002100E800200025082100E70008002000F6
:10246000A5002508083E8600013087008114080079
:102470002000A5002508083E860001308700811055
:1024800008002000A5002508083E860001308700CE
:10249000011408002000A5002508083E8600013030
:1024A000870001100800200026082200CD0020002F
:1024B00025082200CC000800200026082200D100B8
:1024C000200025082200D000080020002608220055
:1024D000CF00200025082200CE000800200026089A
:1024E0002200D300200025082200D200080020008E
:1024F00026082200D500200025082200D40008006C
:10250000200026082200CB00200025082200CA0057
:102510000800200026082100ED00200025082100E9
:10252000EC0008002000A5002508083E86000130C8
:102530008700010E0139080022004A084B040319E4
:1025400008004B088A004A080A009231080021005E
:102550006C086D04031908006D088A006C080A00F5
:10256000923108002000A5002508083E86000130B1
:102570008700010C890C013908008B10210015130C
:10258000C9302000A5001130A600923180220B1620
:10259000080093314123923195316925923193316D
:1025A000D22392319331212308002000B0008B1FE9
:1025B000DF2A8B13300889313D218B170800300842
:1025C00089313D2108002000A5002508083E86002D
:1025D0000130870001152508083E8600013087007C
:1025E000011208002000A5002508031DF92A00306B
:1025F00008002508083E860001308700010C0139DB
:1026000008002000AA000930A9002908A5002A080E
:1026100093316223D83E86000130870001080139DA
:1026200008002200D90159088A31822293310130F1
:102630002200D8005808D9070330590203180800AF
:10264000132BFC3020009C052E0091012F009101DE
:1026500090302E0092004030940040302F009400C3
:1026600008002000A5002508083E860001308700EC
:1026700001162508033E8600013087008101810A8A
:1026800008002000AE012E0894314424933101301B
:102690002000AD002D08AE0703302E0203180800FD
:1026A000432BB3302100B7003708BA003208AA0024
:1026B0003108A900BA30B7003708AB0000309731B5
:1026C000102708002000A800A701281C6B2B250854
:1026D000A6002608A7070310A50D0310A80C2808BC
:1026E000031D652B270808002000A60026080319F3
:1026F000842B2608083E860001308700010CA500C7
:10270000A50C250C0139080000300800DC340A341F
:102710008D340D343E340B34DD3409340B340C3439
:102720000034003400340034003400340034003409
:102730002000AA0003302A02031808000930A9006B
:102740002908A5002A0893316223D83E860001306B
:102750008700011108002000AA0003302A02031894
:1027600008000930A9002908A5002A08933162232E
:10277000D83E860001308700811508008B1200309A
:102780002100CC000030CB000030CA000030C9006E
:102790000030C8000030C7000030C6000030C5005F
:1027A000DD010800D0302000A6002608A700E23096
:1027B000A60027082602031C0800270892314A2297
:1027C000933109302000A6002608A707D72B200048
:1027D000AA0003302A020318FC2B0930A90029089B
:1027E000A5002A0893316223D83E86000130870075
:1027F000010C890C01390800003008002100A401F7
:1028000024088E31BA269331003A0319092C00307E
:10281000080001302000E50065082100A40702300F
:102820002402031C002C0130080021001508C039C7
:1028300017389500F03020009500F030A7002708E9
:102840002100EE000B118B16CA302000A5001130BC
:10285000A6009231892208002000A9012908A800B9
:102860000330A835FF3E031D312C2835A03E96319C
:102870000F26943101302000A8002808A907033052
:102880002902031808002E2C2000AC002C089331DC
:10289000AB23943120002C089331982394310930D4
:1028A0002000AB002B08A5002C0893316223943143
:1028B000D03E92314A22080023001908F00020007F
:1028C0006708283E860001308700700881000130CB
:1028D000F0007008E707083067020318E7010130CD
:1028E000F00070082100DF07080020003908803A56
:1028F000BA0080303A02031D7F2C013038020318E1
:10290000080020003809BA003909BB00BA0A0319C7
:10291000BB0A3A08B8003B08B90008002000A9002B
:102920002908A7002708A800290886000230870088
:1029300001080319A02C0130A7002708A907942C2F
:1029400028082902A500A601A51BA603080020004F
:10295000AC0003302C020318BE2C0930AB002B084E
:10296000A5002C0893316223D63E860001308700F3
:10297000403F2000A900413FAA000800A901AA0188
:1029800008009531132594319131F421943191311E
:10299000E02194319231152294319231BD2294314B
:1029A0009431152494318831F620943188310020F7
:1029B00094319231C9220800003469343034103423
:1029C00020340034003400340034013461343034B5
:1029D00010342034003400340034003402343134F4
:1029E00030341034203400340034003400343030BB
:1029F0002100B1009830B20093315123943121006D
:102A0000D91C08006530B1009830B2009531A52579
:102A100094312100BC00BD013C08B3003D08B40066
:102A2000933151230800373022008C008D01013092
:102A30008E000C3021008C0060308D0052308E00F2
:102A40001B3023008E0040308D0033308C0024007A
:102A50008D018C012100951722009D01080008308E
:102A600021006F0203184A2D6008303E86000130B5
:102A70008700010823009A000130F000700821004F
:102A8000E007083060020318E0010130F000700830
:102A9000EF070800111208002100E401E40A933155
:102AA000FE239531003A031D572D00300800933165
:102AB000112395318031022095312200DA005A0825
:102AC0002100E4009331D22395319131D521013099
:102AD000080000302000A5009830A6003030A70084
:102AE0000030A800A0309631B72695312000B00103
:102AF00030089731C927953101302000AF002F08E9
:102B0000B0070330300203180800782D9431C12437
:102B1000953122008C128C100E108B170B17B630CB
:102B20002000A5000830A600923126229531F7300A
:102B30002000A5001430A60092311D2295312100FD
:102B4000E20195314C259531A12D2000AA01AB0160
:102B50002B0896318B269531013A031DBB2D013090
:102B60002000A8002B0AB52DA835890BB42D280804
:102B7000A9002908AA0401302000A8002808AB07F2
:102B800003302B02031CA82D2A080800FF30F50093
:102B90000030F6000030F7000030F8007108F50250
:102BA0007208F63B7308F73B7408F83B780821007D
:102BB000C8007708C7007608C6007508C500003051
:102BC0009131E42195310B11210045089131E42127
:102BD00008002000B700B501B60135083707B1007D
:102BE00031088600023087000108B2003208B400C4
:102BF0003408031908003408B100B2013108A800F4
:102C00003208A9003008B3003308AA008831082030
:102C1000953101302000B5070030B63DED2D200084
:102C2000A7002708023E8600013087000330010616
:102C3000031D080027080A3E860001308700013086
:102C4000810741310318810A27080A3E86000130B6
:102C5000870016000104031D080027080A3E8600AD
:102C600001308700FF30C03FFF30C13F0800200027
:102C7000A60021006F08031D3F2E6400392E111A93
:102C8000462E2000260823009A005E2E11122000F6
:102C90002608A50021006108303E8600013087002B
:102CA0002000250881000130A50025082100E1074A
:102CB000083061020318E1010130EF022100111612
:102CC00008002000AB002B0897313D2796312000EB
:102CD000A9002908AA008B1F7D2E8B132A35CD3E13
:102CE000860087012B08063E840001308500403FA6
:102CF000803F413F813F8B1708002A35CD3E86003B
:102D000087012B08063E840001308500403F803F4C
:102D1000413F813F08002000A7000330270203182D
:102D2000B52EA601A60A2708A5000330A535FF3E4B
:102D3000031D962E2535A23E860001308700033004
:102D400001060319B32E2708A5000330A535FF3E61
:102D5000031DA62E2535A23E8600013087000430D3
:102D60000106031DA6012608080000300800200007
:102D7000AD002608AB002508AA002D08A9002908E7
:102D8000AE000130A7020030A83B270A0319280A29
:102D9000031908002A0884002B0885000008A900F0
:102DA0002908AC000130AA070030AB3D2C08A9006F
:102DB0002E08860001308700290881000130A90013
:102DC0002908AE07C12EF1007108033E86000130CC
:102DD0008700810120006908031DF32E7108F000AF
:102DE0007008E90008006908F0007008F200720835
:102DF000033E86000130870001080319062F720880
:102E00008600013087000130433FF62E7108F00044
:102E10007208033E860001308700700881000800B8
:102E20002100AE002A08B0002908AF00D101D2016C
:102E30002F0884003008850012000319382FAF30A6
:102E4000AC002C082000DF0021002B08AD002D086D
:102E50002000E00021002E0882315A229731200004
:102E60005F082100D107200060082100D23D182F03
:102E70005208AA005108A90008002000A700A801D4
:102E80002808A500A601A535A60D6A3025078400EF
:102E90009830263D850000082706031D512F00307D
:102EA00008002808A500A601A535A60D6B3025074A
:102EB00084009830263D850000082706031D622FF8
:102EC000013008000130A5002508A80702302802BB
:102ED00003184F2F402F20006A088600013087001A
:102EE0000130433FA4006A08043E86000130870099
:102EF000403F2100C900413FCA00423FCB00433F51
:102F0000CC000030C8000030C7000030C6000030E0
:102F1000C50020006A08423A0319922F6A089631C8
:102F2000E326973120002408FD007D08EA008B315C
:102F3000A22308002000B100310A8600013087007A
:102F400001089431A724973120002908AD002A08F0
:102F5000AE00AF01B0013108053E860001308700A8
:102F60002D08C03F2E08C13F2F08C23F3008C33F85
:102F70003108053E8600013087000430813541313B
:102F8000810D4131810D4131810D7D31890BBE2F84
:102F900008002000AD002D08AB000330AB35FF3E2C
:102FA000031DCE2F2B35A03EAC002C08AE002E0802
:102FB000023E86000130870081012E08053E860012
:102FC000013087000030C03F0030C13FC23FC33FE7
:102FD0002E080A3E8600013087000030C03FC13F06
:102FE0002E080C3E8600013087000030C03FC13FF4
:102FF0002E0A8600013087000108933198230800CB
:10300000003401340034003400340034003400341F
:1030100000340034003400340034003464340134AB
:1030200001340034003400340034003400340034FF
:10303000003400340034003400340034643401348B
:1030400002340234003400340034003400340034DC
:10305000003400340034003400340034643401346B
:10306000523465346C34653461347334653464349B
:103070000D340A34003425346C34643420342D3457
:103080003E342034003444344F3457344E340D34FD
:103090000A3400344E3455344C344C340A34003441
:1030A0004F34463446340D340A34003400340D3481
:1030B0001C341E3417344F344E340D340A3400346B
:1030C000553450340D340A340034253464340D340E
:1030D0000A340034E234D0340034D9346C346434EB
:0830E00000346C346934003443
:020000040001F9
:04000E00ECFDFFFF07
:00000001FF
