:020000040000FA
:10000000803102288731E22F0800373022008C002F
:100010008D0101308E000C3021008C0060308D008D
:1000200052308E001B3023008E0040308D00373060
:100030008C0024008D018C012100951722009D0168
:1000400008002000C300210059082000C000210042
:1000500058082000BF00C036BF0CC036BF0C2100BE
:10006000580820003F07C100210059082000403DEA
:10007000C20021002C082000BF003F08C40021005E
:1000800049082000C700210048082000C6002100C0
:100090004B082000C90021004A082000C800CA01FE
:1000A0004A081A3E840098300318013E8500000873
:1000B000BF003F082100AC07AE302C0203186628B1
:1000C000AE302000BF003F082100AC070530200003
:1000D000BF003F08C5003E08BF003F08FD004308C1
:1000E000863117268031003A03197E28013020001E
:1000F000C5024508031D6B28FC3008002100590883
:1001000020004202031D88282100580820004102D7
:100110000318A828210059082000C200210058080F
:100120002000C10021002C082000BF003F08C400AF
:10013000210049082000C700210048082000C6000F
:1001400021004B082000C90021004A082000C800F7
:100150000130BF003F08CA0705304A02031C50287F
:100160004408BF003F082100AC00200047082100E0
:10017000C900200046082100C800200049082100CD
:10018000CB00200048082100CA0000300800F80019
:100190007808031908007108031DD128F501F6013C
:1001A000D5288030F5000030F6007508F20072089E
:1001B000F700780A860087010108F2007708113EEF
:1001C000F300F4010730F43D7308860074088700DB
:1001D000720881007808053E860087010108F20058
:1001E0007708193EF300F4010730F43D73088600E8
:1001F00074088700720881007708133EF200F3014B
:100200000730F33D72088600730887005030810084
:10021000FE30F2007708183E860087010730873DE0
:10022000720881057808883100208031003A03196E
:100230002C297808023E860087010108F200770821
:10024000163EF300F4010730F43D7308860074088D
:100250008700720881003F297708163EF200F301FB
:100260000730F33D72088600730887002030810054
:10027000780896319C268031003A03195129780874
:10028000033E860087010108F2007708173EF3005D
:10029000F4010730F43D7308860074088700720883
:1002A0005C297708173EF200F3010730F33D72082E
:1002B000860073088700203081007808043E86009D
:1002C00087010108F200F3010930F235F30D890BC3
:1002D00065297135C83E860087017208C03F7308E2
:1002E000C13F080020006F08093E860001308700EA
:1002F0000108803A2100E10020006F080E3E8600D0
:10030000013087000103FF3A803A2100E10203181F
:10031000B72920006F080A3E8600013087000130AF
:10032000810741310318810A6F080A3E86000130B7
:100330008700403F2100E100413FE20000306202BF
:10034000413003196102031C022A20006F080A3E93
:100350008600013087000030C03FC13F6F08860033
:100360000130870001088A3164228131022A20008D
:100370006F08093E86000130870001082100E10076
:10038000E201E11BE20320006F080E3E860001300F
:10039000870021006208803A803C031DD129610852
:1003A00001020318F92902302100E10020006F0842
:1003B000023E860001308700210061088100200094
:1003C0006F080A3E8600013087000030C03FC13F01
:1003D0006F0886000130870001082100E1006108F4
:1003E0002000EE00210029088A0028080A00813137
:1003F000022A20006F080A3E860001308700003084
:10040000C03FC13F20006F080C3E860001308700CE
:100410000130810741310318810A6F080C3E8600C4
:10042000013087001600403A2100E1001600E10487
:10043000031D080020006F080C3E86000130870075
:100440000030C03FC13F6F088E31DC26080020001D
:10045000DD004E0886008701403FD000413FD100BB
:1004600050088400510885001200253A031DD42A43
:100470004E08860087010130810741310318810A47
:100480002100CE01CF01D201D301FF30D000FF30D7
:10049000D10020004E0886008701403FD000413F38
:1004A000D10050088400510885001200643A0319F5
:1004B000682A4E0886008701403FD000413FD100A6
:1004C00050088400510885001200693A031DA22AD1
:1004D0004E08860087010130810741310318810AE7
:1004E0004F088600870101088400850102308107DA
:1004F000003FD000013FD1005008D5005108D60080
:10050000890D893B8909D700D800D900DA00DB00C2
:10051000DC005508B0005608B1005708B200580872
:10052000B3005908B4005A08B5005B08B6005C086F
:10053000B7005D088431C62420003108CF003008A0
:10054000CE0008004E0886008701403FD000413FA2
:10055000D10050088400510885001200253A031D7F
:10056000C92A4E08860087010130810741310318EE
:10057000810A2530F2000030F3005D08D0005008F9
:10058000F4008A312F2201302000CE000030CF004D
:1005900008004E08860087010130810741310318A9
:1005A000810ACE01CF0108004E0886008701403F36
:1005B000D000413FD1005008840051088500000858
:1005C000D200D3015208F2005308F3005D08D400B2
:1005D0005408F4008A312F22823120004E08860010
:1005E00087010130810741310318810AC32AF201D2
:1005F0002830860000308700473FF000F01F212B95
:100600002000A809A909AA09AB09AC09AD09AE09DE
:10061000AF09A80A031D1F2BA90A031D1F2BAA0A35
:10062000031D1F2BAB0A031D1F2BAC0A031D1F2B21
:10063000AD0A031D1F2BAE0A031D1F2BAF0AF201CB
:10064000F20A2030860000308700473FF000F01F9C
:10065000482B2000A009A109A209A309A409A50902
:10066000A609A709A00A031D482BA10A031D482BB0
:10067000A20A031D482BA30A031D482BA40A031D2D
:10068000482BA50A031D482BA60A031D482BA70AC1
:100690002000200821042204230424042504260425
:1006A00027040319A02BF101F10AA71B642BA03525
:1006B000A10DA20DA30DA40DA50DA60DA70D013032
:1006C000F0007008F107552B27082F02031D822B1D
:1006D00026082E02031D822B25082D02031D822BC6
:1006E00024082C02031D822B23082B02031D822BBE
:1006F00022082A02031D822B21082902031D822BB6
:1007000020082802031C942B2008A8022108A93BDA
:100710002208AA3B2308AB3B2408AC3B2508AD3B91
:100720002608AE3B2708AF3BA736A60CA50CA40CA9
:10073000A30CA20CA10CA00C0130F102031D642B30
:1007400072080319C12BA809A909AA09AB09AC09A8
:10075000AD09AE09AF09A80A031DC12BA90A031DE3
:10076000C12BAA0A031DC12BAB0A031DC12BAC0A66
:10077000031DC12BAD0A031DC12BAE0A031DC12BE6
:10078000AF0A20002808A0002908A1002A08A2001A
:100790002B08A3002C08A4002D08A5002E08A600F5
:1007A0002F08A7000800F2012030860000308700E3
:1007B000473FF000F01FFD2B2000A009A109A2096E
:1007C000A309A409A509A609A709A00A031DFB2BD3
:1007D000A10A031DFB2BA20A031DFB2BA30A031D69
:1007E000FB2BA40A031DFB2BA50A031DFB2BA60A4A
:1007F000031DFB2BA70AF201F20A28308600003005
:100800008700473FF000F01F282C2000A809A90905
:10081000AA09AB09AC09AD09AE09AF09A80A031DC5
:10082000242CA90A031D242CAA0A031D242CAB0A7C
:10083000031D242CAC0A031D242CAD0A031D242CFB
:10084000AE0A031D242CAF0A0130F0007008F20636
:1008500073308600003087000830F00000301E0042
:10086000F00B2F2C20002008210422042304240450
:100870002504260427040319932CF101F10AA71B70
:100880004E2CA035A10DA20DA30DA40DA50DA60DF6
:10089000A70D0130F0007008F1073F2CF335F40D7F
:1008A000F50DF60DF70DF80DF90DFA0D27082F02CD
:1008B000031D742C26082E02031D742C25082D02FE
:1008C000031D742C24082C02031D742C23082B02F6
:1008D000031D742C22082A02031D742C21082902EE
:1008E000031D742C20082802031C872C2008A80252
:1008F0002108A93B2208AA3B2308AB3B2408AC3BB8
:100900002508AD3B2608AE3B2708AF3B7314A7363E
:10091000A60CA50CA40CA30CA20CA10CA00C0130DD
:10092000F102031D4E2C72080319B42CF309F409CB
:10093000F509F609F709F809F909FA09F30A031D97
:10094000B42CF40A031DB42CF50A031DB42CF60ACA
:10095000031DB42CF70A031DB42CF80A031DB42C94
:10096000F90A031DB42CFA0A73082000A0007408C9
:10097000A1007508A2007608A3007708A4007808F3
:10098000A5007908A6007A08A70008002000BF008B
:100990003008C4003108C5003208C6003308C7005B
:1009A0003408C8003508C9003608CA003708CB002B
:1009B0004430860000308700473FB800B81FE22C63
:1009C0000130E32C00302000B900BA013908C20020
:1009D0003A08C3004208430403190C2DC409C50991
:1009E000C609C709C809C909CA09CB09C40A031D30
:1009F0000C2DC50A031D0C2DC60A031D0C2DC70A9C
:100A0000031D0C2DC80A031D0C2DC90A031D0C2D36
:100A1000CA0A031D0C2DCB0A2100D11B132DFD305A
:100A2000D205FF30D3055108803A2000B80080304D
:100A30003802031D1E2D0130210050020318262DFF
:100A400001302000BD000030BE002E2D21005108D5
:100A50002000BE00210050082000BD0021004F08EA
:100A60002000C10021004E082000C00042084304BD
:100A7000031D3D2D2100521D422DFF302000C007D7
:100A8000FF30C13D1F302000CC000030CD002200DF
:100A9000EF01D82D200044084504460447044804CB
:100AA00049044A044B04031D6F2D3E08803AB800E8
:100AB00080303802031D5E2D01303D0203186F2D7A
:100AC00020004108803AB80080303802031D6A2DAA
:100AD00001304002031CE42D2100D21CE42DFF3024
:100AE0002000CC07FF30CD3D0A30A000A101A201BB
:100AF000A301A401A501A601A7014408A800450877
:100B0000A9004608AA004708AB004808AC004908FD
:100B1000AD004A08AE004B08AF008231F7228431A5
:100B200020002108F4002008F300883120208431BF
:100B30007308303E2000B8004C08503E860001305B
:100B4000870038088100FF30BD07FF30BE3DFF3011
:100B5000C007FF30C13D0A30A000A101A201A301DE
:100B6000A401A501A601A7014408A8004508A90001
:100B70004608AA004708AB004808AC004908AD0089
:100B80004A08AE004B08AF008331D32384312000E4
:100B90002008C4002108C5002208C6002308C70099
:100BA0002408C8002508C9002608CA002708CB0069
:100BB00020004D08803AB80080303802031DE22D35
:100BC00001304C0203184A2D200042084304031D43
:100BD000EC2D2100521D042EFF302000CC07FF30E9
:100BE000CD3D42084304031DF72D2B30F82D2D3049
:100BF000BB000030BC003B08B8004C08503E8600EB
:100C0000013087003808810020004C08503EB800B1
:100C10003808A4004108A6004008A5003F088B3111
:100C20001E2320002508B1002408B0000800200081
:100C3000BD00B701B801B901BA01BB01B401B501EA
:100C40003D080319562E7D080319562E3D08083E0F
:100C50008600870181193A2E7D08083E86008701AB
:100C6000811D3A2E3D08083E860087018115B4019A
:100C7000B40A6A2E7D08083E8600870181194E2E2F
:100C80003D08083E86008701811D4E2E7D08083EE6
:100C9000860087018115B501B50A6A2E3D08083E18
:100CA0008600870181196A2E7D08632E3D08031D89
:100CB0005C2E7D08031D542E3D0803196A2E7D0805
:100CC000031D6A2E3D08083E8600870181196A2EA1
:100CD000003008007D089631E8268631003A031975
:100CE000742E2000BB01BB0A2E0012082000B000A9
:100CF0003008B1002E0013082000B0003008B20008
:100D00002F0013082000B0003008B30097312127CE
:100D1000863120003D0803199F2E3D08043E8600C1
:100D200087010108FF3EB0003008BC00B60140302A
:100D30002E0098002F00980122001D14B12E7D086E
:100D4000043E860087010108FF3EB0003008BC0069
:100D5000B601B60A2E00980140302F0098002200FC
:100D60001D10F10120003D088031C7208631F101BE
:100D7000F10A7D088031C720863121005C105C11AA
:100D8000DC112C0896314B2686319631352686317A
:100D90002100D801D90120003608031DD82E111BCF
:100DA000D32E2100DC102000111FD32E1113E02EB2
:100DB000121BDC2E2100DC102000121FDC2E12136F
:100DC0002130B00030082E00980621302000B000FD
:100DD00030082F009806C0302000B00030082E00E8
:100DE0009406C0302000B00030082F009406200088
:100DF0003C18412F2E001A082100C8072E001B089E
:100E00002100C93D2F001A082100CA072F001B0826
:100E10002100CB3D20003B08031D262F2E001A0881
:100E200020003902F3002E001B0820003A3BF4009A
:100E300088312020863173082100D8077408D93DF5
:100E40002E001B082000BA002E003D2F2F001A088C
:100E500020003902F3002F001B0820003A3BF40069
:100E600088312020863173082100D8077408D93DC5
:100E70002F001B082000BA002F001A082000B9001C
:100E8000762F2E001A082100C8022E001B08210010
:100E9000C93B2F001A082100CA022F001B0821009D
:100EA000CB3B20003B08031D5C2F2E001A082000BE
:100EB0003702F3002E00622F2F001A08200037029D
:100EC000F3002F001B082000383BF400883120205D
:100ED000863173082100D8077408D93D2E001B08FD
:100EE0002000B8002E001A082000B7003C08031D9F
:100EF0007B2F21005C1401302000BC022100DC1C8F
:100F0000832F5C155C14DC145C1CCB2E96313826C8
:100F10008631200031082E009200200032082E0079
:100F20009300200033082F00930021005C1D9A2FAE
:100F3000FB300800DC1D9E2FFA300800200034082A
:100F40000319A72F3D08083E860087018111350847
:100F50000319AF2F7D08083E8600870181113D08E7
:100F6000973131278631003A0319C32F20003D08FD
:100F7000883100208631003A031DC32F20003D0830
:100F80008E31522686317D08973131278631003ADD
:100F90000319D52F7D08883100208631003A031DC2
:100FA000D52F7D088E31522686312E0096012F00D6
:100FB00096012E0097012F0097012E0011102F008F
:100FC0001110682E5330840089308500A0308600CF
:100FD00000308700283096317A268731C830840067
:100FE0000030850017309631742687312030840018
:100FF0000130850050309631742620008C31EA2C67
:10100000F0007008083E86008701010C890C013948
:101010000800F7000330770203181D280930F60096
:101020007608F000770897314127B33E86008701A4
:10103000403FF400413FF5000800F401F5010800CD
:101040007408803AF50080307502031D29280130AC
:101050007302031808007309F5007409F600F50A15
:101060000319F60A7508F3007608F4000800F40086
:101070007408F2007208F3007408860001308700DB
:101080000108031948280130F2007208F4073C28CF
:1010900073087402F000F101F01BF1030800003046
:1010A000F0009030F1003030F2000030F3002030DA
:1010B00089317B218831FB017B088A3164228831A8
:1010C0000130FA007A08FB0703307B02031808009E
:1010D0005C28F10003307102031882287108F000C7
:1010E0000330F035FF3E031D71287035223E860027
:1010F0000130870002300106031D802801300800FE
:1011000000300800003008002100DE01DE0A9731BF
:10111000D4278831003A031D8F280030080097310A
:10112000112788319631332688312100EB006B0876
:10113000DE0097319727883196313B260130080031
:10114000F401F5017508883169208831013A031DE1
:10115000B4280130F200750AAE28F235890BAD28AB
:101160007208F3007308F4040130F2007208F50706
:1011700003307502031CA228740808000A302300FB
:101180009F0090309D0024309E0040309B00033033
:101190009C000030F0000030F1009631622688316A
:1011A0000030F0000030F1009631682688310030C0
:1011B000F0000030F10096315C262100DA010800D1
:1011C0002000A300A101A20121082307FB007B0846
:1011D0008600013087000108FC007C08A000200880
:1011E000031908002008FB00FC017B08F2007C08C2
:1011F000F3007A08FD007D08F4008A312F2288313F
:1012000001302000A1070030A23DE428F600760856
:101210008931D3218931F4007408F5008B1F1F290F
:101220008B137535C83E860087017608063E84001C
:101230008501403F803F413F813F8B170800753556
:10124000C83E860087017608063E84008501403F3F
:10125000803F413F813F0800F2007208023E860055
:101260000130870002300106031D080072080A3EA3
:101270008600013087000130810741310318810A5F
:1012800072080A3E86000130870016000104031D23
:10129000080072080A3E860001308700FF30C03F18
:1012A000FF30C13F08007F340C34723401345834AD
:1012B0000D34323416343234163404340034AE343F
:1012C00000346934303410342034003400340034B5
:1012D00000340134613430341034203400340034AC
:1012E00000340034023431343034103420340034CB
:1012F000003400340034F8007108F6007008F5007E
:101300007808F4007408F9000130F2020030F33B71
:10131000720A0319730A0319080075088400760815
:1013200085000008F4007408F7000130F50700306C
:10133000F63D7708F40079088600013087007408CC
:1013400081000130F4007408F9078429FC007C0A4C
:10135000860001308700010888310920893174082E
:10136000F8007508F900FA01FB017C08053E8600CB
:10137000013087007808C03F7908C13F7A08C23F32
:101380007B08C33F7C08053E86000130870004309F
:1013900081354131810D4131810D4131810D7D31E9
:1013A000890BC8290800F200F3017308F000F1016D
:1013B000F035F10D2430700784009830713D8500C0
:1013C00000087206031DE629003008007308F000CB
:1013D000F101F035F10D2530700784009830713D32
:1013E000850000087206031DF7290130080001304E
:1013F000F0007008F307023073020318E429D529BE
:101400002000E3005F08E5005E08E4002100CC0155
:10141000CD012000640884006508850012000319CE
:10142000262A6430E1006108CE006008E20062080C
:10143000CF006308823127228A3120004E08210024
:10144000CC0720004F082100CD3D092A21004D087E
:101450002000DF0021004C082000DE000800740896
:10146000031D7408031D382A7208963146260800A9
:101470007408033E860087011600010403195B2AE5
:101480007408033E86008701403FF500413FF600A7
:10149000740A86008701403FF700413FF800780852
:1014A000803AF9007608803A7902031D592A7508B6
:1014B000770203180800740A86008701013081074B
:1014C00041310318810A0800F8007808F60003305B
:1014D000F635FF3E031D682A7635203EF700770873
:1014E000F9007908023E8600013087008101790801
:1014F000053E8600013087000030C03F0030C13F0C
:10150000C23FC33F79080A3E8600013087000030A1
:10151000C03FC13F79080C3E860001308700003093
:10152000C03FC13F790A860001308700010897312A
:1015300052270800FB007B088931D3218A31F7004C
:101540007708FA007B08973131278A31003A03196E
:10155000C02A7B08063E860087017A35C83E840093
:101560008501403F0002F3000131413F003BF400A0
:10157000883120208A317408F9007308F800C22AE3
:10158000F801F90100307902653003197802031C73
:10159000CD2A7B089631802608007B089631872665
:1015A0000800FA007A08023E860001308700010830
:1015B00003190D2B7A08033E860001308700403F57
:1015C000F800413FF900F936F80CF936F80C7A08C2
:1015D000033E860001308700780881024131790896
:1015E000813B7F317A0A860001308700010888310B
:1015F00009207408F8007508F900F936F80CF93676
:10160000F80C7A08033E86000130870078088107CD
:1016100041317908813D7F3108007A0A8600013026
:1016200087000108883109207A08033E86000130CE
:1016300087007408C03F7508C13F08002000AC0057
:101640002100521C2C2B20002C08A7002708FA0090
:1016500024088831E0208B312000A61B342B26087B
:10166000AB002508AA00362BAA01AB01A801A901ED
:101670002908803AA7002B08803A2702031D422B35
:101680002A0828020318562B2030F2000030F300FD
:1016900020002C08A7002708F4008A312F228B3164
:1016A00001302000A8070030A93D382B2100521836
:1016B000622B20002C08A7002708FA002408883194
:1016C000E0208B31200024088831372020002A08B0
:1016D0007007A4002B08713DA50008002100E70059
:1016E0006708E5000330E535FF3E031D732B6535C4
:1016F000203EE6006608E800680A860001308700A0
:1017000001089631F5268B31003A031908002100B3
:10171000680A86000130870001089731AA278B31BB
:10172000003A03190800210068089631CE268B3153
:10173000210068088D31CB258B3121006808023EDD
:1017400086000130870003300102031CAF2B6808BC
:1017500086000130870001088A3164228B31210024
:101760006808E50065082000EF0021006808023ED7
:101770008600013087000135A03E86008701413F89
:101780008A00403F0A008B3108002000CE0005305F
:10179000CC004C08CD004E08031DDB2B4B08031D6D
:1017A000DB2BFF30080001302000CD024D08031D67
:1017B000DB2BFC3008004B08CC004C08FD004E0829
:1017C000863117268B31003A031DD32B20004E089B
:1017D0000319EE2B4E088A319A228B3120004B08D8
:1017E0000319F62B4B088A319A228B3120004E08C0
:1017F0009631E8268B31003A0319062C20004E085A
:10180000883100208B31003A031D162C20004B0834
:101810009631E8268B31003A03191F2C20004B0823
:10182000883100208B31003A03191F2C20004B080F
:10183000CC004C08BE004E0880312120080000304A
:10184000080020006E03031D3F2C03102100D61C4E
:101850000314031C2E2C2100D614302C2100D6108A
:10186000D61C372C1F302000E60098303B2C14305B
:101870002000E6009830E700973163278C31210083
:10188000D61C08008831A0208C31013A031D622C3F
:1018900000302000E6009830E70021005B08DF0000
:1018A000E0015F082000E800210060082000E90056
:1018B0009731632701302100DF005F08DB07D40187
:1018C000D50108008831A0208C31043A031D08009E
:1018D00000302000E6009830E70021005B08DF00C0
:1018E000E0015F082000E800210060082000E90016
:1018F000973163278C3101302100DB025F2C2000FF
:101900006F080A3E860001308700403F2100E10059
:10191000413FE200003062020930031961020318FE
:10192000972C20006F088931A6218C319C2C200037
:101930006F088E31DC268C3120006F080A3E86004D
:10194000013087000130810741310318810A6F0897
:101950000A3E860001308700403F2100E100413F00
:10196000E20000306202103003196102031C08001B
:1019700020006F08053E860001308700403F2100AF
:10198000E100413FE200423FE300433FE400043016
:10199000E436E30CE20CE10C890BC82C20006F0844
:1019A000033E86000130870021006108C03F6208C5
:1019B000C13F20006F08023E860001308700810190
:1019C000810A6F080A3E8600013087000030C03F60
:1019D000C13F0800973185278C312130F0000C3051
:1019E000F100963156268C313E30F0001630F10071
:1019F000963150268C312100DB01D401D50188318C
:101A000084208C31003A0319FF2C2100D61CFF2CB6
:101A10008831A0208C31013A031D312D0130210085
:101A2000D4070030D53D643054065504031DFF2C07
:101A300000302000E6009830E70021005B08EC0051
:101A4000ED016C082000E80021006D082000E9008D
:101A5000973163278C3101302100EC006C08DB07E3
:101A6000FD2C8831A0208C31043A031DFF2C01305D
:101A70002100D4070030D53D643054065504031DC1
:101A8000FF2C00302000E6009830E70021005B08C2
:101A9000EC00ED016C082000E80021006D0820003A
:101AA000E900973163278C3101302100DB02FD2CE6
:101AB00020006F080A3E860001308700403F210069
:101AC000E100413FE2002730620210300319610259
:101AD000031C852D20006F08860001308700010857
:101AE0008A3164228D3120006F0886000130870022
:101AF00001082100E10061082000EE002100270814
:101B00008A0026080A008D31080020006F08093E6F
:101B10008600013087000108803A2100E1002000A2
:101B20006F080E3E8600013087006F080E3E84006D
:101B30000130850000360102803A2100E1020318DD
:101B4000080020006F08023E8600013087008101F6
:101B5000810A6F080A3E8600013087000030C03FCE
:101B6000C13F6F080C3E860001308700FF30C03F48
:101B7000FB30C13F6F08860001308700010821005B
:101B8000E10061082000EE00210027088A002608F5
:101B90000A008D3108002000A0002008053E8600C4
:101BA00001308700403FF000413FF100423FF2002A
:101BB000433FF3000430F336F20CF10CF00C890BC8
:101BC000DB2D2008033E860001308700403FF400F3
:101BD000413FF5007408F6007508F700F801F901B7
:101BE0007008F6027108F73B7208F83B7308F93B7E
:101BF0007908A4007808A3007708A2007608A1005D
:101C00002108F0002208F1002308F2002408F30064
:101C100020080F3E860001308700010A132EF3379B
:101C2000F20CF10CF00C890B0F2E7308A400720853
:101C3000A3007108A2007008A100A41B342E240880
:101C4000031D2C2E2308031D2C2E2208031D2C2ED1
:101C500080302102031C342E0030A4000030A30089
:101C60000030A2007F30A100A41F482E8030210246
:101C7000FF30223BFF30233BFF30243B0318482E2C
:101C8000FF30A400FF30A300FF30A2008030A1008D
:101C90002108F0002008093E860001308700700806
:101CA00081000800FC007C088931D3218E31F700C7
:101CB0007708FB007C0896319C268E31003A031D84
:101CC000912E7B35C83E86008701403FF700413F9B
:101CD000F8007C08043E860087010108F900FA013B
:101CE0000930F935FA0D890B712E78087A02031D37
:101CF0007B2E7708790203188D2E0130F7007C08BF
:101D0000053E86008701770881070F300102031C1A
:101D100008007C089631DB2608007C089631DB261B
:101D200008007C08043E860087010108F700F801DE
:101D3000F735F80D7C08063E860087017B35C83EE6
:101D400084008501403F0002F3000131413F003B28
:101D5000F400883120208E3178087402031DB22EE1
:101D6000770873020318C02E2030F7007C08023E6B
:101D700086008701770881007C089631B626080026
:101D80000230F7007C08033E860087017708810750
:101D90007C08033E8600870120300102031C0800F6
:101DA0002030F7007C08023E86008701770881001A
:101DB0007C089631B6260800F6008B1F262F8B1361
:101DC0007608053E860001308700403FF000413F25
:101DD000F100423FF200433FF3000430F336F20CCF
:101DE000F10CF00C890BEE2E7608053E86000130D2
:101DF00087007008810241317108813B41317208CE
:101E0000813B41317308813B7D317608033E86007A
:101E100001308700403FF000413FF1007008F200C0
:101E20007108F300F401F5017608053E86000130E3
:101E300087007208810741317308813D4131740880
:101E4000813D41317508813D8B1708007608053EBC
:101E5000860001308700403FF000413FF100423FE3
:101E6000F200433FF3000430F336F20CF10CF00CB7
:101E7000890B342F7608053E8600013087007008F4
:101E8000810241317108813B41317208813B41310E
:101E90007308813B7D317608033E86000130870060
:101EA000403FF000413FF1007008F2007108F3007C
:101EB000F401F5017608053E8600013087007208BE
:101EC000810741317308813D41317408813D4131C1
:101ED0007508813D08002000D2005208CF00D001D3
:101EE000CF35D00D24304F0784009830503D850009
:101EF0000008D1005108D4005208CF00D001CF35DE
:101F0000D00D25304F0784009830503D85000008E3
:101F1000D1005108D5005508CF004F08CB00540818
:101F20008B31C5238F312000D0005008D300DA2F29
:101F30005408973131278F31003A0319B82F210007
:101F40005D08031DA82F20005408893106218F3118
:101F50002000540896318E268F31200054088600C8
:101F600087010108CF004F08F000803104208F3135
:101F700020005508973131278F31003A0319FD2F82
:101F800021005D08031DC92F200055088931062155
:101F90008F312000550896318E268F31200055084C
:101FA000860087010108CF004F08F000803104202F
:101FB0008F31FD2F5308CF00D001CF1BD003500825
:101FC000003A0319E72FFF3A0319EC2FFD2F4F08B2
:101FD000003A0319982FFD2F4F08FB3A0319FD2FE4
:101FE000073A0319FD2F013A0319FD2F033A03198C
:101FF000FD2F013A0319FD2FFD2F20005308080083
:10200000003401340034003400340034003400342F
:1020100000340034003400340034003464340134BB
:10202000013400340034003400340034003400340F
:10203000003400340034003400340034643401349B
:1020400002340234003400340034003400340034EC
:10205000003400340034003400340034643401347B
:102C640008000030080020001C15080020001C117A
:102C740008009731EA2708002100D401D501080093
:102C84001630210097000800F10071089631AC2637
:102C94000800F000700820009B0008007108210063
:102CA400A7007008A600080071082100A900700898
:102CB400A800080071082300A1007008A000080003
:102CC40071082100EF007008EE000800710823006D
:102CD400A3007008A2000800F0302100990022002F
:102CE40096010800640080010131890B752E0034BF
:102CF400FE0012001E00FE0B7B2E0034F000700854
:102D0400083E8600870181140800F0007008083E20
:102D14008600870181100800F0007008083E8600D4
:102D2400870101140800F0007008083E860087013E
:102D340001100800F0007008083E86008701010EAB
:102D440001390800FF3020009B009A0191100430E3
:102D54009C000800F0002000111AB22E6400AD2E71
:102D6400700823009A000800F0007008083E8600EE
:102D7400870101157008083E8600870101120800CA
:102D840097310327963188314F2096319731972711
:102D94009631973121270800FB008B1FD72E8B1308
:102DA4007B088A31D1228B1708007B088A31D12213
:102DB4000800F0007008083E8600870101167008BC
:102DC400033E860087018101810A0800F000700833
:102DD400031DEE2E003008007008083E86008701AF
:102DE400010C01390800F5000930F4007408F00002
:102DF400750897314127B53E8600870101080139DE
:102E04000800F90179089731BF2797310130F8009C
:102E14007808F9070330790203180800042F210009
:102E2400EA016A088B316E23973101302100E900F1
:102E34006908EA0703306A0203180800132FFC30FC
:102E440020009C052E0091012F00910190302E004E
:102E540092004030940040302F0094000800F100AC
:102E6400710803193F2F7108083E86008701010C81
:102E7400F000F00C700C0139080000300800F30079
:102E8400F201731C492F7008F1007108F207031056
:102E9400F00D0310F30C7308031D432F7208080090
:102EA400F50003307502031808000930F4007408B3
:102EB400F000750897314127B53E8600870101115E
:102EC400080068302000EA006A08ED006708DF00A7
:102ED4006608DE006D30EA006A08E00000308A31DE
:102EE40000220800F50003307502031808000930B9
:102EF400F4007408F000750897314127B53E860048
:102F040087018115080080310520973196316E269E
:102F140097319631422697319631A42697318831DC
:102F2400BE2097319631C2260800AD30F1007108F9
:102F3400F200BF30F10072087102031C080072082D
:102F44009631952697310930F1007108F2079B2FCD
:102F5400F500033075020318BD2F0930F40074081E
:102F6400F000750897314127B53E86008701010CB2
:102F7400890C0139080000300800F7007708973100
:102F84007427973177089731522797310930F60023
:102F94007608F0007708973141279731AD3E963196
:102FA400952608002000D70157088F316B279731E9
:102FB400003A0319DF2F0030080001302000D6004A
:102FC4005608D70702305702031CD62F01300800D9
:102FD400F4017408F3000330F335FF3E031DEE2FB4
:102FE4007335203E89312C2197310130F300730869
:102FF400F4070330740203180800EB2F2D342D342A
:103004002D342D342D342D34253464342D342D3485
:103014002D342D342D342D342D342D342D340D34C4
:103024000A3400344F34463446340D340A34003400
:1030340000340D341C341E3417344F344E340D34E4
:0C3044000A340034BF34AD340034B6341C
:020000040001F9
:04000E00ECFDFFFF07
:00000001FF
