:020000040000FA
:1000000080312428003008007E1480318B1A0B1DAB
:100010000D2889314021803122280B1A8B1C14288D
:1000200092317322803122280B1F22282100911E39
:1000300022282000911E222821005B088A005A08ED
:100040000A0080317E100900803126288831002086
:100050008031EF006030840093308500DD30860011
:10006000003087000C3092319D2280318230840034
:100070009530850050308600013087001B3092316A
:100080009D228031F001F101F201F301F401F5014B
:10009000F6015F30840000308500103092319722E5
:1000A0008031A030840000308500303092319722BA
:1000B0008031203084000130850030309231972229
:1000C0008031A030840001308500203092319722A9
:1000D0007E10200080316C289531052580318B17EA
:1000E0000B1785302000A0001230A1009231C422ED
:1000F00080311B302000A0001430A1009231BB22BF
:1001000080312000DF01E0012100C201C3019231F2
:10011000A3228031F40121004903031D9328C90162
:1001200087312327803192315A228031003A0319D6
:1001300078299631982680312000DD005D08E500A1
:1001400065088A3120228031003A0319782920007D
:100150006408031DB6286508DD005D082100CC0099
:100160002000650896317126803178297403031DBB
:10017000682954306506031D112992317B22803194
:1001800015302000DE004B30DD00BE30890BC62864
:10019000DD0BC628DE0BC628000015302000DE006F
:1001A0004B30DD00BE30890BD328DD0BD328DE0BAE
:1001B000D328000015302000DE004B30DD00BE30BB
:1001C000890BE028DD0BE028DE0BE028000015306D
:1001D0002000DE004B30DD00BE30890BED28DD0B4A
:1001E000ED28DE0BED28000015302000DE004B303E
:1001F000DD00BE30890BFA28DD0BFA28DE0BFA2869
:10020000000015302000DE004B30DD00BE30890BD1
:100210000729DD0B0729DE0B07290000F401200068
:10022000E40146306506031D78299231572280315A
:1002300015302000DE004B30DD00BE30890B1E295A
:10024000DD0B1E29DE0B1E29000015302000DE000C
:100250004B30DD00BE30890B2B29DD0B2B29DE0B4B
:100260002B29000015302000DE004B30DD00BE30B1
:10027000890B3829DD0B3829DE0B382900001530B1
:100280002000DE004B30DD00BE30890B4529DD0B40
:100290004529DE0B4529000015302000DE004B30DB
:1002A000DD00BE30890B5229DD0B5229DE0B5229AD
:1002B000000015302000DE004B30DD00BE30890B21
:1002C0005F29DD0B5F29DE0B5F290000F401762931
:1002D00054306506031D712921004C088531A7257E
:1002E0008031463020006506031D78292000E40196
:1002F0009531F2258031003A03198B287408031DCB
:10030000BF2920006403031D932901302100BE078B
:100310000030BF3D14303E063F04031D9329BE014B
:10032000BF012000E401013095319D258031013A63
:10033000031DBB292100C218BB290130C0070030B2
:10034000C13DE8304006033003194106031DFF2973
:10035000C001C10130302000D2009830D300933169
:10036000F8238031F401F40A2000E401E40A2100BA
:10037000BE01BF01FE292100C001C101FF292000EB
:100380006403031DE02901302100BE070030BF3D9A
:1003900075303F02313003193E02031CE029013061
:1003A000BE070030BF3D7D303F063E04031DE029FF
:1003B000BE01BF012000E401F40196310F26803117
:1003C00001302000DD005D082100CA074B08031D35
:1003D000F52992317B228031C83021004A06031D65
:1003E000FF29CA01CB01CB0AFF2992315722803164
:1003F000C83021004A06031DFF29CA01CB01023083
:100400007606031D2A2AF6012000E101E2010230EE
:100410002100C2060030C306C21C1F2A92315D2291
:10042000803120005F0E0F39003A031D1A2A9231E5
:10043000602280312000E801E80AE901262A923191
:10044000A32280312000E901E90AE8010330DD0040
:100450005D08E3007603031D3C2A01302000E1071C
:100460000030E23D00306202C83003196102031C13
:100470003C2AE101E201F6012100C21C812A8831F7
:1004800001208031013A031D582AEE3020005F061A
:1004900060040319582A0130DD005D08F507323089
:1004A0007506031D812A5F080F39DD00DD0A6F2AFA
:1004B000883101208031043A031D812A20005F0821
:1004C00060040319812A0130DD005D08F507323030
:1004D0007506031D812A5F080F39DD00DD035F0803
:1004E0005D06F0395D06DF005F080F39DD00DD0EC7
:1004F0005F085D060F395D06DF00F5012100C901C7
:10050000C90A20006903031DEC2A6808031DEC2AB0
:100510006708031DEC2A6608031DEC2A0130E10779
:100520000030E23D003062021E3003196102031CFC
:10053000E02AE101E2015F080F39DD00DD035F0819
:100540005D06F0395D06DF0003306302031CAC2A50
:100550000330DD005D08E30003306306031DB82AA5
:10056000A001A00AA101A10A013096312C268031F8
:10057000023020006306031DC52AA001A00AA101C4
:10058000A10A003096312C26803120006303031D20
:10059000D02AA001A101A10A003096312C26803179
:1005A00020006308031DDA2AA001A1010030963162
:1005B0002C2680312100C901C90A01302000E30244
:1005C0005F080F39003A031DEC2AE901A001A101DF
:1005D000003096312C26803120006803031D592BF2
:1005E0006908031D592B6708031D592B6608031D55
:1005F000592B0130E1070030E23D003062021E302D
:1006000003196102031C492BE101E2015F080F3964
:10061000DD00DD0A5F085D06F0395D06DF000430AD
:1006200063020318E30103306306031D1F2BA001BF
:10063000A00AA101A10A013096312C268031023096
:1006400020006306031D2C2BA001A00AA101A10A12
:10065000003096312C26803120006303031D372B98
:10066000A001A101A10A003096312C268031200082
:100670006308031D412BA001A101003096312C26F7
:1006800080312100C901C90A01302000DD005D0868
:10069000E3075F0E0F39DD005F080F395D06031DAC
:1006A000592BE801A001A00AA101003096312C26A7
:1006B000803120006908031D992B6808031D992BC0
:1006C0006703031D992B6608031D992B0130E10771
:1006D0000030E23D003062021E3003196102031C4B
:1006E000852BE101E2015F080F39DD00DD0A5F08BB
:1006F0005D06F0395D06DF005F080F39DD00DD0EB5
:100700005F085D060F395D06DF0021003A080F39EA
:100710002000DD005F080F395D06031D992B5F087F
:100720000F39DD00DD0E5F085D060F395D06DF0065
:10073000E7016908031D8B286808031D8B286708DB
:10074000031D8B286603031D8B280130E107003051
:10075000E23D003062021E3003196102031CC42B0B
:10076000E101E2015F080F39DD00DD035F085D068E
:10077000F0395D06DF005F080F39DD00DD0E5F0830
:100780005D060F395D06DF0021003A080F392000B1
:10079000DD005F080F395D06031D8B285F080F39E8
:1007A000DD00DD0E5F085D060F395D06DF00E60146
:1007B0008B282000B800B301B401B501B601B20125
:1007C000AF01B001380803191F2C2A0803191F2C88
:1007D0003808083E8600013087008119FF2B2A085F
:1007E000083E860001308700811DFF2B3808083E37
:1007F0008600013087008115AF01AF0A342C2A082A
:10080000083E8600013087008119162C3808083E02
:10081000860001308700811D162C2A08083E8600BC
:10082000013087008115B001B00A342C3808083E29
:100830008600013087008119342C2A082C2C3808B6
:10084000031D252C2A08031D1D2C38080319342CE0
:100850002A08031D342C3808083E86000130870022
:100860008119342C003008002A0893318923833100
:10087000003A03193E2C2000B201B20A2E001208E1
:100880002000AB002B08AC002E0013082000AB00AA
:100890002B08AD002F0013082000AB002B08AE0082
:1008A0009331C82383312000380803196A2C380893
:1008B000043E8600013087000108FF3EAB002B0894
:1008C000B700B10140302E0098002F00980122009F
:1008D0001D147D2C2A08043E860001308700010883
:1008E000FF3EAB002B08B700B101B10A2E00980102
:1008F00040302F00980022001D102000A101380870
:1009000086316E2683312000A101A10A2A08863192
:100910006E26833120006D106D11ED116F0892313C
:10092000802283319231662283312100C401C501C6
:1009300020003108031DA22C111FED10111F9E2C49
:100940001113A82C121BA52CED10121FA52C12138D
:100950002130AB002B082E00980621302000AB0080
:100960002B082F009806C0302000AB002B082E006B
:100970009406C0302000AB002B082F009406200006
:100980003718092D2E001A08F0071B08F13D2F001B
:100990001A08F2071B08F33D20003208031DEB2C58
:1009A0002E001A0820003502A0002E001B0820008F
:1009B000363BA100953136258331200020082100E7
:1009C000C407200021082100C53D2E001B0820007F
:1009D000B6002E00052D2F001A0820003502A000B9
:1009E0002F001B082000363BA100953136258331AE
:1009F000200020082100C407200021082100C53D57
:100A00002F001B082000B6002F001A082000B50098
:100A10003B2D2E001A08F0021B08F13B2F001A088C
:100A2000F2021B08F33B20003208031D1E2D2E008E
:100A30001A0820003302A0002E00242D2F001A08CF
:100A400020003302A0002F001B082000343BA1002F
:100A5000953136258331200020082100C40720006D
:100A600021082100C53D2E001B082000B4002E00E7
:100A70001A082000B300370803196D140130B702BB
:100A8000ED1C442D6D156D14ED146D1C982C9231D8
:100A90006922833120002C082E00920020002D08AE
:100AA0002E00930020002E082F00930020006D1DC3
:100AB0005B2DFB300800ED1D5F2DFA3008002F087C
:100AC0000319682D3808083E86000130870081111F
:100AD00030080319712D2A08083E8600013087006E
:100AE0008111380894312D248331003A0319852D62
:100AF00020003808933131238331003A031D852DBE
:100B0000200038088E311D26833120002A089431B8
:100B10002D248331003A03199A2D20002A0893319D
:100B200031238331003A031D9A2D20002A088E318B
:100B30001D2683312E0096012F0096012E0097016D
:100B40002F0097012E0011102F001110322C2000C1
:100B5000A4002A2EE4012100C2102000E901E90AC4
:100B6000E101E2010800E4012100C2143A08F03971
:100B70000138BA0095311D250800E4012100C21496
:100B80003A08F0390238B92DE4012100C2143A08BC
:100B9000F0390338B92DE4012100C2143A08F039C4
:100BA0000438B92DE4012100C2143A08F03905389F
:100BB000B92DE4012100C2143A08F0390638B92DE4
:100BC000E4012100C2143A08F0390738B92DE401D4
:100BD0002100C2143A08F0390838B92DE401210087
:100BE000C2143A08F0390938B92DE4012100C214C1
:100BF0003A08F0390A38B92DE4012100C2143A0844
:100C0000F0390B38B92DE4012100C2143A08F0394B
:100C10000C38B92DE4012100C2143A08F0390D381E
:100C2000B92DE4012100C2143A08F0390E38B92D6B
:100C30002100C2102000E901E90AE4012100C901F4
:100C4000C90A08002100C2142000E801E80A1D2E8C
:100C5000E40108002408A200A3012308003A0319B4
:100C6000322E282E2208303A0319AA2D013A0319F0
:100C7000B32D033A0319BD2D013A0319C42D073AC8
:100C80000319CB2D013A0319D22D033A0319D92D9B
:100C9000013A0319E02D0F3A0319E72D013A031920
:100CA000EE2D783A0319F52D033A0319FC2D013A7C
:100CB0000319032E073A03190A2E013A0319112EBC
:100CC000023A0319112E123A03191E2E0D3A031976
:100CD000222E023A0319182E282E08002000A80000
:100CE0002808031908002108031D792EA501A60173
:100CF0007D2E8030A5000030A6002508A200220825
:100D0000A700280A8600013087000108A2002708F2
:100D1000113EA300A4010730A43D23088600240847
:100D20008700220881002808053E860001308700E0
:100D30000108A2002708193EA300A4010730A43D22
:100D40002308860024088700220881002708133E14
:100D5000A200A3010730A33D2208860023088700D4
:100D600050308100FE30A2002708183E860087011F
:100D70000730873D220881052808933131238631C9
:100D8000003A0319D82E20002808023E86000130C0
:100D900087000108A2002708163EA300A40107301F
:100DA000A43D230886002408870022088100ED2E38
:100DB00020002708163EA200A3010730A33D220809
:100DC00086002308870020308100280893312723DC
:100DD0008631003A0319002F20002808033E8600C0
:100DE000013087000108A2002708173EA300A401D4
:100DF0000730A43D230886002408870022080C2F12
:100E000020002708173EA200A3010730A33D2208B7
:100E1000860023088700203081002808043E8600D1
:100E2000013087000108A200A3010930A235A30DFB
:100E3000890B162F2135703E860087012208C03F9E
:100E40002308C13F0800942F3E30D2009830D300D1
:100E50009331F82308004330D2009830D300933107
:100E6000F82308004830D2009830D3009331F8239B
:100E700008004D30D2009830D3009331F823080099
:100E80005230D2009830D3009331F8230800573005
:100E9000D2009830D3009331F82308005C30D200A0
:100EA0009830D3009331F82308006130D200983095
:100EB000D3009331F82308006630D2009830D30075
:100EC0009331F82308006B30D2009830D30093316F
:100ED000F82308007030D2009830D3009331F82303
:100EE00008007530D2009830D3009331F823080001
:100EF0007A30D2009830D3009331F82308007F3045
:100F0000D2009830D3009331F82308008430D20007
:100F10009830D3009331F82308008930D2009830FC
:100F2000D3009331F823080020005F080F39DA005E
:100F3000DB015B08003A03199E2FD02F5A08003AB4
:100F40000319242F013A03192B2F033A0319322FC7
:100F5000013A0319392F073A0319402F013A0319AF
:100F6000472F033A03194E2F013A0319552F0F3A11
:100F700003195C2F013A0319632F033A03196A2FEF
:100F8000013A0319712F073A0319782F013A03190F
:100F90007F2F033A0319862F013A03198D2FD02F83
:100FA00008002000CF004B08D1004A08D0002100E3
:100FB000B001B101200050088400510885001200E2
:100FC0000319F72F5030CD004D08C1004C08CE005A
:100FD0004E08C2004F088F31582787312000410842
:100FE0002100B007200042082100B13DDA2F210086
:100FF00031082000CB00210030082000CA00080082
:10100000AE342000A401A501250895319D25883125
:10101000013A031D172801302000A200250A1128DB
:10102000A235890B10282208A3002308A40401304C
:101030002000A2002208A50703302502031C042873
:101040002408080020006C08A03E8600870181016A
:1010500023001D1D372820006C08A03E8600870154
:101060008114210059088A0058080A008831230099
:101070009D1C462820006C08A03E860087010115B3
:10108000210057088A0056080A00883120006C08A1
:10109000A03E860087010108031955282100550844
:1010A0008A0054080A00883108009431902408000E
:1010B0002000A8002808A6000330A635FF3E031D27
:1010C0005D282635203EA7002708A9002908023EF2
:1010D00086000130870081012908053E8600013025
:1010E00087000030C03F0030C13FC23FC33F2908E6
:1010F0000A3E8600013087000030C03FC13F29080A
:101100000C3E8600013087000030C03FC13F290AF5
:10111000860001308700010894313F240800200038
:101120002408031D2408031D9928220892319122C6
:1011300008002408033E86008701160001040319F5
:10114000BC282408033E86008701403FA500413F9C
:10115000A600240A86008701403FA700413FA8005F
:101160002808803AA9002608803A2902031DBA28D7
:1011700025082702031808002000240A860087019A
:101180000130810741310318810A08002100C21C87
:101190000800883101208831013A031DEF28EE3024
:1011A00020005F0660040319EF28923163222000BB
:1011B0005F080F39A600A60A5F082606F039260642
:1011C000DF005F080F39A600A60E5F0826060F395C
:1011D0002606DF00F5012100C901C90A080088318F
:1011E00001208831043A031D080020005F086004D4
:1011F0000319080092316022883120005F080F39FE
:10120000A600A603DC282000A800280897313E2766
:1012100089312000A4002408A500280894312D2439
:101220008931003A03192E2920002808063E86003D
:10123000013087002535703E84008501403F000263
:10124000A0000131413F003BA10095313625893195
:1012500020002108A7002008A60031292000A601AF
:10126000A70100302702653003192602031C3C2920
:1012700028089231CD22080028089231D622080091
:101280000B1121005C082000950021003C080F395B
:10129000003A031D6329C6018B1222008E11200023
:1012A0005F080F39F80021003C087806F03978060D
:1012B000BC00500851040319080051088A00500866
:1012C0000A00893108003C080F39F8000030FA00A4
:1012D00078080F3CF900031CFA030130FB007B087F
:1012E000C6074608FC00FD017A087D06031D7A2921
:1012F00079087C06031D0800C6019531D525080034
:101300002000AA002A08023E86000130870001085A
:101310000319BE292A08033E860001308700403F9A
:10132000A800413FA900A936A80CA936A80C2A0894
:10133000033E8600013087002808810241312908D8
:10134000813B7F312A0A86000130870001089531F0
:10135000682520002408A8002508A900A936A80CA3
:10136000A936A80C2A08033E860001308700280809
:10137000810741312908813D7F3108002A0A860012
:101380000130870001089531682520002A08033EB6
:101390008600013087002408C03F2508C13F0800AF
:1013A0002000BA002100361CDE2920003A08B500D2
:1013B0003508AA00320896314B2689312000B41B2B
:1013C000E6293408B9003308B800E829B801B901A2
:1013D000B601B7013708803AB5003908803A3502BE
:1013E000031DF429380836020318082A203020008B
:1013F000A2000030A3003A08B5003508A4008831E7
:101400008F20893101302000B6070030B73DEA292E
:1014100021003618142A20003A08B5003508AA0021
:10142000320896314B2689312000320895314F25FC
:10143000200038082007B2003908213DB300080019
:101440002000A200272A01300800003008002208EE
:10145000A000A1012108003A03192F2A252A2008FB
:10146000303A0319232A013A0319232A033A0319AC
:10147000232A013A0319232A073A0319232A013A96
:101480000319232A033A0319232A013A0319232AA9
:101490000F3A0319232A013A0319232A783A031928
:1014A000232A033A0319232A013A0319232A073A64
:1014B0000319232A013A0319232A033A0319232A79
:1014C000013A0319232A133A0319232A013A03196B
:1014D000232A0D3A0319232A023A0319232A252A1B
:1014E00008002000B4003408B2000330B235FF3EDB
:1014F000031D762A3235203EB3003308B500350A85
:1015000086000130870001089331A8238A31003A10
:10151000031908002000350A860001308700010801
:101520009431A7248A31003A0319080020003508B5
:1015300093316C238A31200035088C3171248A3133
:1015400020003508023E860001308700033001028A
:10155000031CB22A35088600013087000108883153
:1015600058208A3120003508B2003208AD00350815
:10157000023E8600013087000135DD3E860087018E
:10158000413F8A00403F0A008A3108002000C9001C
:101590000530C7004708C8004908031DDC2A460873
:1015A000031DDC2AFF30080001302000C802480873
:1015B000031DDC2AFC3008004608C7004708AA00C3
:1015C00049088331D9238A31003A031DD42A2000E7
:1015D00049080319EF2A4908893103218A3120007B
:1015E00046080319F72A4608893103218A31200069
:1015F0004908933189238A31003A0319072B2000C7
:101600004908933131238A31003A031D172B2000FA
:101610004608933189238A31003A0319202B200090
:101620004608933131238A31003A0319202B2000D8
:101630004608C7004708B90049088B31EC23080069
:101640000030080020002D080A3E86000130870087
:10165000403FAE00413FAF0000302F020930031978
:101660002E020318382B2D0897316C278B313C2B19
:101670002D088C31F8248B3120002D080A3E86007D
:10168000013087000130810741310318810A2D089C
:101690000A3E860001308700403FAE00413FAF0068
:1016A00000302F02103003192E02031C08002D08F1
:1016B000053E860001308700403FAE00413FAF004D
:1016C000423FB000433FB1000430B136B00CAF0C24
:1016D000AE0C890B652B2D08033E86000130870078
:1016E0002E08C03F2F08C13F2D08023E8600013062
:1016F00087008101810A2D080A3E8600013087009B
:101700000030C03FC13F080020002D080A3E86007F
:1017100001308700403FAE00413FAF0007302F024D
:10172000D03003192E02031CAD2B2D08860001308A
:1017300087000108883158208B3120002D08860051
:10174000013087000108AE002E08A70021006408C0
:101750008A0063080A008B3108002D08093E8600C4
:10176000013087000108803AAE002D080E3E860049
:10177000013087002D080E3E8400013085000036C0
:101780000102803AAE02031808002D08023E8600CE
:10179000013087008101810A2D080A3E8600013050
:1017A00087000030C03FC13F2D080C3E860001304D
:1017B0008700FF30C03FFB30C13F2D08860001305D
:1017C00087000108AE002E08A700210064088A00E7
:1017D00063080A008B3108002000BC002100450886
:1017E0002000BB00210044082000BA00BB36BA0C20
:1017F000BB36BA0C2100440820003A07BD00210086
:10180000450820003B3DBE006F08BA003A08BF0003
:101810007108C2007008C1007308C4007208C300D8
:10182000C5014508393E840098300318013E850003
:101830000008BA003A08EF07AE306F020318242CF4
:10184000AE30BA003A08EF070530BA003A08C000D7
:101850003908BA003A08AA003C088331D9238B31F1
:10186000003A03193B2C01302000C0024008031D40
:10187000282CFC3008002100450820003E02031DF2
:10188000452C2100440820003D0203185B2C210058
:1018900045082000BE00210044082000BD006F085C
:1018A000BA003A08BF007108C2007008C10073088E
:1018B000C4007208C3000130BA003A08C5070530F9
:1018C0004502031C112C3F08BA003A08EF004208F9
:1018D000F1004108F0004408F3004308F200003032
:1018E00008002000AA002A08053E86000130870073
:1018F000403FA000413FA100423FA200433FA30060
:101900000430A336A20CA10CA00C890B812C2A0850
:10191000033E860001308700403FA400413FA50000
:101920002408A6002508A700A801A9012008A602EE
:101930002108A73B2208A83B2308A93B2908AE00A1
:101940002808AD002708AC002608AB002B08A00033
:101950002C08A1002D08A2002E08A3002A080F3E83
:10196000860001308700010AB92CA337A20CA10C14
:10197000A00C890BB52C2308AE002208AD0021086D
:10198000AC002008AB00AE1BDA2C2E08031DD22CB5
:101990002D08031DD22C2C08031DD22C80302B02C5
:1019A000031CDA2C0030AE000030AD000030AC007B
:1019B0007F30AB00AE1FEE2C80302B02FF302C3B73
:1019C000FF302D3BFF302E3B0318EE2CFF30AE00D6
:1019D000FF30AD00FF30AC008030AB002B08A00022
:1019E0002A08093E8600013087002008810008008F
:1019F0002000A6008B1F432D8B132608053E860072
:101A000001308700403FA000413FA100423FA200BB
:101A1000433FA3000430A336A20CA10CA00C890BF9
:101A20000B2D2608053E8600013087002008810224
:101A300041312108813B41312208813B413123085A
:101A4000813B7D312608033E860001308700403F00
:101A5000A000413FA1002008A2002108A300A4018A
:101A6000A5012608053E860001308700220881076F
:101A700041312308813D41312408813D4131250810
:101A8000813D8B1708002608053E8600013087003F
:101A9000403FA000413FA100423FA200433FA300BE
:101AA0000430A336A20CA10CA00C890B512D2608E2
:101AB000053E86000130870020088102413121085F
:101AC000813B41312208813B41312308813B7D31FB
:101AD0002608033E860001308700403FA000413FBA
:101AE000A1002008A2002108A300A401A501260846
:101AF000053E860001308700220881074131230816
:101B0000813D41312408813D41312508813D080056
:101B10002000CD004D08CA00CB01CA35CB0D8E3058
:101B20004A07840098304B3D85000008CC004C08E3
:101B3000CF004D08CA00CB01CA35CB0D8F304A0704
:101B4000840098304B3D85000008CC004C08D00044
:101B50005008CA004A08C6004F088A31C6228D3193
:101B60002000CB004B08CE00F72D4F0894312D24D8
:101B70008D31003A0319D52D20006E08031DC42DA8
:101B80004F089631E8268D3120004F089231DF2230
:101B90008D3120004F088600013087000108CA00FF
:101BA0004A08A00092314D228D3120005008943116
:101BB0002D248D31003A03191A2E20006E08031DC2
:101BC000E52D50089631E8268D31200050089231DD
:101BD000DF228D3120005008860001308700010887
:101BE000CA004A08A00092314D228D311A2E4E08AB
:101BF000CA00CB01CA1BCB034B08003A0319042EC1
:101C0000FF3A0319092E1A2E4A08003A0319B52D76
:101C10001A2E4A08FB3A03191A2E073A03191A2EEC
:101C2000013A03191A2E033A03191A2E013A03191D
:101C30001A2E1A2E20004E0808002000A90029089C
:101C400097313E278E312000A4002408A8002908DF
:101C5000933127238E31003A031D612E2000283551
:101C6000703E86008701403FA400413FA50029083F
:101C7000043E8600013087000108A600A701093054
:101C8000A635A70D890B402E25082702031D4A2ED5
:101C90002408260203185D2E0130A4002908053E01
:101CA000860001308700240881070F300102031CE1
:101CB000080029089331D823080029089331D82334
:101CC000080020002908043E860001308700010832
:101CD000A400A501A435A50D2908063E8600013003
:101CE00087002835703E84008501403F0002A00037
:101CF0000131413F003BA100953136258E31200056
:101D000025082102031D862E240820020318952E83
:101D10002030A4002908023E8600013087002408F4
:101D20008100290893317A2308000230A400290891
:101D3000033E860001308700240881072908033EFE
:101D400086000130870020300102031C080020308B
:101D5000A4002908023E8600013087002408810083
:101D6000290893317A23080020002D08093E8600B7
:101D7000013087000108803AAE002D080E3E860033
:101D8000013087000103FF3A803AAE020318F32EB8
:101D90002D080A3E8600013087000130810741315D
:101DA0000318810A2D080A3E860001308700403F53
:101DB000AE00413FAF0000302F02413003192E0228
:101DC000031C352F2D080A3E8600013087000030A5
:101DD000C03FC13F2D0886000130870001088831CF
:101DE00058208E31352F2D08093E8600013087009E
:101DF0000108AE00AF01AE1BAF032D080E3E8600FA
:101E0000013087002F08803A803C031D092F2E08DF
:101E1000010203182C2F02302000AE002D08023ED4
:101E20008600013087002E0881002D080A3E8600BA
:101E3000013087000030C03FC13F2D0886000130CF
:101E400087000108AE002E08A700210066088A005E
:101E500065080A008F31352F20002D080A3E8600C4
:101E6000013087000030C03FC13F20002D080C3EEC
:101E70008600013087000130810741310318810A53
:101E80002D080C3E8600013087001600403AAE0057
:101E90001600AE04031D08002D080C3E860001301C
:101EA00087000030C03FC13F2D088C31F824080066
:101EB0002000C900410886008701403FC300413F20
:101EC000C40043088400440885001200253A031D1D
:101ED000DD2F410886008701013081074131031859
:101EE000810A2100B201B301B601B701FF30B4008D
:101EF000FF30B5002000410886008701403FC30045
:101F0000413FC40043088400440885001200633A3E
:101F1000031DAB2F41088600870101308107413145
:101F20000318810A420886008701010884008501A0
:101F3000023081070008C3004308C8004808C300F6
:101F40004308BB00490897319B2720003C08C2008A
:101F50003B08C1000800410886008701403FC300DC
:101F6000413FC40043088400440885001200253A1C
:101F7000031DD22F410886008701013081074131BE
:101F80000318810A2530A2000030A3004908C300CD
:101F90004308A40088318F2001302000C1000030A8
:101FA000C2000800410886008701013081074131E5
:101FB0000318810AC101C201080041088600870197
:101FC000403FC300413FC4004308840044088500EB
:101FD0000008C500C6014508A2004608A30049083C
:101FE000C7004708A40088318F208F3120004108A6
:101FF000860087010130810741310318810ACC2F07
:102492000800080008000800080094319024080091
:1024A20022008C12080022000E1308009231A3228F
:1024B200080020006A08080022000C12080022000E
:1024C2008C16080022000E17080020001C150800B8
:1024D20020001C1108009431D524080023001D128D
:1024E2001D1608008B109331982308001930210023
:1024F2009700080022000E170C128C16080020000C
:10250200A00020089B00080093313C2392318831BF
:10251200C6200800F0302100990022009601080030
:102522002000A10021089231B3220800640080013A
:102532000131890B982A0034FE0012001E00FE0BA6
:102542009E2A003422000C1692315422923192318A
:1025520051220800FF3020009B009A0191100430A4
:102562009C0008002000A000111EB52A20082300AC
:102572009A000800200021082100E4002000200821
:102582002100E3000800200021082100E6002000CD
:1025920020082100E50008002000A0002008083ED5
:1025A200860001308700811408002000A000200866
:1025B200083E860001308700811008002000A0003C
:1025C2002008083E86000130870001140800200020
:1025D200A0002008083E8600013087000110080094
:1025E200200021082100D500200020082100D4006D
:1025F2000800200021082100D90020002008210025
:10260200D8000800200021082100D700200020085F
:102612002100D6000800200021082100DB00200054
:1026220020082100DA000800200021082100D30040
:10263200200020082100D2000800200021082100EB
:10264200D100200020082100D00008002000A000B6
:102652002008083E860001308700010E013908007B
:102662002000A0002008083E860001308700010CEF
:10267200890C01390800883101209331023A031D87
:10268200080001302000A6002608F60708008B107B
:10269200210015134A302000A0001230A10093310E
:1026A20015230B1608009331E823933196310F2638
:1026B20093319431652493319331C8230800223435
:1026C2000B34B4340E3484340B344C3412344C3462
:1026D20012344D3412342000AB008B1F762B8B1337
:1026E2002B08893180218B1708002B088931802122
:1026F20008002000A0002008083E86000130870064
:1027020001152008083E86000130870001120800EA
:102712002000A0002008031D902B00300800200894
:10272200083E860001308700010C01390800F030B4
:10273200200095000B118B16210052085304031937
:10274200080053088A0052080A009331080020004A
:10275200A5000930A4002408A0002508943109240A
:10276200583E860001308700010801390800200028
:10277200B70137088A317122933101302000B60047
:102782003608B7070330370203180800BA2BFC30AB
:1027920020009C052E0091012F00910190302E0007
:1027A20092004030940040302F0094000800200036
:1027B200A0002008083E860001308700011620088C
:1027C200033E8600013087008101810A0800200053
:1027D200A90129089431ED24933101302000A80089
:1027E2002808A9070330290203180800EA2B5430ED
:1027F2002000D6005608D9005308CB005208CA0060
:102802005930D6005608CC0000308731D127080055
:102812002000A300A201231C122C2008A1002108E1
:10282200A2070310A00D0310A30C2308031D0C2CF8
:1028320022080800EE3020005F0660040319242CF1
:1028420092315422943120005F08600403192B2C2A
:1028520092315122F50108002000A100210803193C
:102862003D2C2108083E860001308700010CA000A3
:10287200A00C200C01390800003008002000A5003F
:1028820003302502031808000930A4002408A00020
:10289200250894310924583E860001308700011131
:1028A20008002000A50003302502031808000930A3
:1028B200A4002408A000250894310924583E86006B
:1028C200013087008115080050302000A100210846
:1028D200A2006230A10022082102031C0800220883
:1028E2009231E822943109302000A1002108A20788
:1028F2006A2C2000D20152088D3188259431003A89
:102902000319852C0030080001302000D100510845
:10291200D20702305202031C7C2C01300800230033
:102922001908F70020006C08A83E86008701770886
:1029320081000130F7007708EC0708306C020318B9
:10294200EC010130F7007708EA0708002000A50033
:10295200033025020318BC2C0930A4002408A0006F
:10296200250894310924583E860001308700010C65
:10297200890C013908000030080021001508C0390F
:1029820017389500F03020009500F030A2002208A0
:102992002100DC000B118B164B302000A0001230FE
:1029A200A10093311E2308002000A4012408A300E3
:1029B2000330A335FF3E031DDA2C2335203E96312A
:1029C200C026943101302000A3002308A40703305D
:1029D200240203180800D72C2000A70027089431EE
:1029E200522494312000270894313F249431093035
:1029F2002000A6002608A00027089431092494315B
:102A0200503E9231E82208009531B9259531923134
:102A12008B2295319231772295319231AB229531C9
:102A22009331482395319431BE2495319731CB2788
:102A3200953193315423080020005F080F39A0001C
:102A420021003A080F392000A10020082102031CAE
:102A5200302DE701E70AE601E801E9010800E70194
:102A6200E601E60AE801E901080020002108803AAF
:102A7200A20080302202031D402D013020020318E3
:102A8200080020002009A2002109A300A20A0319BC
:102A9200A30A2208A0002308A10008002000A40025
:102AA2002408A2002208A30024088600013087001F
:102AB20001080319612D0130A2002208A407552D37
:102AC20023082402A000A101A01BA10308002000EA
:102AD200A7000330270203187F2D0930A60026081D
:102AE200A000270894310924563E86000130870051
:102AF200403F2000A400413FA5000800A401A50119
:102B02000800003469343034103420340034003486
:102B12000034003401343134303410342034003481
:102B22000034003400340234613430341034203440
:102B320000340034003400342000A10003302102AC
:102B42000318B72D2108A0000330A035FF3E031D56
:102B5200A62D2035223E8600013087000230010674
:102B6200031DB52D013008000030080000300800B8
:102B7200303022008C008D0140308E000F30210059
:102B82008C0060308D0013308E00FF3023008E00E9
:102B920050308D0033308C0024008D018C012100D7
:102BA200951722009D0108008B1222008E15A0307D
:102BB2000032890BD92D22008E1120005F080F39B7
:102BC200F70021003C087706F0397706BC00500870
:102BD20051040319080051088A0050080A0095316F
:102BE20008002100CF01CF0A94317A249531003AAE
:102BF200031DFD2D003008009331B823953180313B
:102C0200022095312000D30053082100CF009431D7
:102C12006524953192316C22013008000030200089
:102C2200A0009830A1003030A2000030A300203074
:102C32009731122796312000AB012B08883158209A
:102C4200963101302000AA002A08AB0703302B027C
:102C5200031808001E2E2000A20022080319352E98
:102C6200923163229631382E9231542296312000CD
:102C7200200803193F2E22000C12412E22000C16AE
:102C8200200021080319482E923160220800923157
:102C9200512208002000B100AF01B0012F08310716
:102CA200AB002B088600013087000108AC002C081D
:102CB200AE002E08031908002E08AB00AC012B0849
:102CC200A2002C08A3002A08AD002D08A400883118
:102CD2008F20963101302000AF070030B03D4F2EDB
:102CE2002000DC00872EE40108009230D2009830E8
:102CF200D3005C08DA00DB015A08D4005B08D50077
:102D02009331F8232000E401E40A08005C08DA00A9
:102D1200DB015B08003A03198F2E762E5A08463AD9
:102D22000319742E123A0319742E762E080020000D
:102D32006A080319982E6B08A03E860087010108D5
:102D4200A00020082100CE0020006B08A83E8600CB
:102D520087010108A0002008A1000130A00020087E
:102D6200EB0708306B020318EB01210091120130CE
:102D72002000EA022100911620002108080020000C
:102D8200A2002208023E86000130870002300106BE
:102D9200031D080022080A3E860001308700013028
:102DA200810741310318810A22080A3E8600013058
:102DB200870016000104031D080022080A3E86004F
:102DC20001308700FF30C03FFF30C13F08002000C4
:102DD200A600260897313E2796312000A400240839
:102DE200A5008B1F042F8B132535703E86008701AB
:102DF2002608063E840001308500403F803F413F67
:102E0200813F8B1708002535703E86008701260812
:102E1200063E840001308500403F803F413F813FB4
:102E220008002000A8002108A6002008A500280804
:102E3200A4002408A9000130A2020030A33B220A08
:102E42000319230A031908002508840026088500AF
:102E52000008A4002408A7000130A5070030A63D01
:102E62002708A40029088600013087002408810071
:102E72000130A4002408A9071C2F2000A200A301EE
:102E82002308A000A101A035A10D8E3020078400E7
:102E92009830213D850000082206031D522F003084
:102EA20008002308A000A101A035A10D8F30200742
:102EB20084009830213D850000082206031D632FFF
:102EC200013008000130A0002008A30702302302CD
:102ED2000318502F412F2000AC002C0A860001302D
:102EE2008700010895316825973120002408A80041
:102EF2002508A900AA01AB012C08053E8600013075
:102F020087002808C03F2908C13F2A08C23F2B0872
:102F1200C33F2C08053E860001308700043081350E
:102F22004131810D4131810D4131810D7D31890B5D
:102F3200902F08002000C000210032083304031D36
:102F4200AA2F33082000BF00210032082000BE0053
:102F5200B32F3208FF3E2000BE00FF302100333D78
:102F62002000BF003B08BD003D082300A000A101D6
:102F7200A0302000BD003D08B2003F08B4003E086A
:102F8200B30040088931D02120003308BC00320848
:102F9200BB0008002100911222302000A00008305E
:102FA200A10093310C239731083023009F00903009
:102FB2009D0024309E0040309B0003309C0049302D
:102FC2002000A0001230A1009231FA2297316F3016
:102FD2002000A0001230A1009331032397314E301C
:102FE2002000A0001230A1009231F1222100CE0176
:102FF2002000EC01EB01EA012100911608000034E7
:10300200023400340034003400340034003400341C
:1030120000340034003400340034643401340134A8
:1030220000340034003400340034003400340034FE
:103032000034003400340034003464340134023487
:1030420001340034003400340034003400340034DD
:103052000034003400340034003464340134503419
:103062004934433453344D344134523454340034AB
:1030720000340D341C341E341734443449344D3476
:1030820030340034443449344D343134003444341F
:1030920049344D3432340034443449344D343334B9
:1030A2000034443449344D343434003444344934E3
:1030B2004D3435340034443449344D3436340034DC
:1030C200443449344D3437340034443449344D3473
:1030D20038340034443449344D34393400344434BF
:1030E20049344D3441340034443449344D3442344B
:1030F2000034443449344D34433400344434493484
:103102004D3444340034443449344D34453400346D
:10311200443449344D344734003459345034003443
:083122006234253463340034EB
:020000040001F9
:04000E00E4FDFFF519
:00000001FF
